:020000040000FA
:1000000060052020A5010000A9010000AB0100004F
:1000100000000000000000000000000000000000E0
:10002000000000000000000000000000AD01000022
:100030000000000000000000AF010000B10100005E
:10004000B3010000B3010000B3010000B3010000E0
:10005000B3010000B3010000B3010000B3010000D0
:1000600000000000B3010000B30100000000000028
:1000700000000000B3010000B3010000B301000064
:10008000B3010000B3010000B3010000B3010000A0
:10009000B3010000B30100000000000000000000F8
:1000A000B3010000B30100000000000000000000E8
:1000B000B301000000000000B3010000B301000024
:1000C00000F002F800F042F812A030C808382418F6
:1000D0002D18AC4201D100F039F80FCCA246AB4646
:1000E0000CA730CF2D1B083F3F197C427F1E544484
:1000F0002D090426F441641EAC4201D300F026F819
:100100000126334200D0FB1A3343984754465D46DC
:10011000DFE700005C1700006C1700000000000023
:100120007047000000000000002300240025002686
:10013000103A01D378C1FBD8520700D330C100D5A3
:100140000B6070471FB51FBD10B510BD00F0A4F8BF
:100150001146FFF7F7FF01F083F900F0BCF803B494
:10016000FFF7F2FF03BC00F0C3F8000070B50546CE
:100170000C46164602E00FCC0FC5103E102EFAD2E8
:10018000082E02D303CC03C5083E042E07D301CCAE
:1001900001C5361F03E021782970641C6D1C761E92
:1001A000F9D270BD06480047FEE7FEE7FEE7FEE72E
:1001B000FEE7FEE703480449024A044B704700008B
:1001C000C100000060042020600520206004202081
:1001D000F8B5042A2CD3830712D00B78491C03707E
:1001E000401C521E83070BD00B78491C0370401C27
:1001F000521E830704D00B78491C0370401C521E0A
:100200008B079B0F05D0C91ADF002023DE1B08C90E
:100210000AE0FFF7ABFFF8BD1D4608C9FD401C46CC
:10022000B4402C4310C0121F042AF5D2F308C91A97
:10023000521EF0D40B78491C0370401C521EEAD4A5
:100240000B78491C0370401C012AE4D40978017022
:10025000F8BD01E004C0091F0429FBD28B0701D5BA
:100260000280801CC90700D00270704700290BD0A3
:10027000C30702D00270401C491E022904D3830721
:1002800002D50280801C891EE3E70022EEE70022EF
:10029000DFE7704770477047754600F025F8AE46B7
:1002A000050069465346C008C000854618B020B511
:1002B000FFF780FF60BCB64600260027C0C5C0C55A
:1002C000C0C5C0C5C0C5C0C5C0C5C0C5403D490842
:1002D00049008D46704710B50446C046C0462046CA
:1002E000FFF73DFF10BD00000048704700002020D0
:1002F00001491820ABBEFEE7260002007047811EB0
:10030000091F00BFFCD2704710B5002A0FD09123FF
:100310005B01C3180020DC692405240F05D00C5CA8
:100320001C60401C8242F6D1104680B210BD0020F5
:1003300080B210BD084A835880210B438350801837
:100340000F221202436813400122D2029342F7D1D6
:1003500002688A43026070473812000070B50A785C
:100360000C231A400124240305196E689E43B21819
:100370006A60497807221140035993435918015183
:1003800070BD000010B543B2002B11D43F290FD827
:1003900007240C400123A340C908C90108180549D6
:1003A000002A02D00A5C1A4301E00A5C9A430A540C
:1003B00010BDC04660002020F0B585B004A9AE2075
:1003C0004870002003900870EF480222FFF79CFF5E
:1003D000EE4D2868800608D42868800605D4286871
:1003E000800602D428688006F3D52E46083E306881
:1003F000E7490840783030602C1F2068E549084004
:10040000E549401820602868400612D52868400653
:100410000FD5286840060CD528684006F3D408E0BC
:100420002868800608D42868800605D428688006D5
:1004300002D428688006F3D5D34F3846FFF77AFFF9
:1004400004A92020019048700398087002223846C1
:10045000FFF75AFF2868800608D42868800605D46C
:100460002868800602D428688006F3D53068C84919
:10047000084078210291084330602068C54908404F
:10048000C549084320602868400612D52868400600
:100490000FD5286840060CD528684006F3D408E03C
:1004A0002868800608D42868800605D42868800655
:1004B00002D428688006F3D5B34F3846FFF73AFFD9
:1004C00004A903984870087002223846FFF71CFF01
:1004D0002868800608D42868800605D42868800625
:1004E00002D428688006F3D53068A94908400299EB
:1004F000084330602068A7490840A74908432060A6
:100500002868400612D5286840060FD5286840069E
:100510000CD528684006F3D408E02868800608D483
:100520002868800605D42868800602D428688006DA
:10053000F3D5954F3846FFF7FDFE04A9B02048706B
:100540000398087002223846FFF7DEFE286880060E
:1005500008D42868800605D42868800602D4286854
:100560008006F3D530688A49084002990843306014
:100570002068884908408849084320602868400668
:1005800012D5286840060FD5286840060CD5286883
:100590004006F3D408E02868800608D4286880065E
:1005A00005D42868800602D428688006F3D5764FE3
:1005B0003846FFF7BFFE04A9C820487003980870AA
:1005C00002223846FFF7A0FE2868800608D4286873
:1005D000800605D42868800602D428688006F3D5F2
:1005E00030686B49084002990843306020686949C7
:1005F00008406949084320602868400612D52868E9
:1006000040060FD5286840060CD528684006F3D46C
:1006100008E02868800608D42868800605D4286881
:10062000800602D428688006F3D5574F3846FFF776
:1006300081FE04A9402048700398087002223846C1
:10064000FFF762FE2868800608D42868800605D473
:100650002868800602D428688006F3D530684C49A3
:10066000084002990843306020684A4908404A49D6
:10067000084320602868400612D5286840060FD538
:10068000286840060CD528684006F3D408E028689E
:10069000800608D42868800605D42868800602D41D
:1006A00028688006F3D5384F3846FFF743FE04A983
:1006B000812048700398087002223846FFF724FE14
:1006C0002868800608D42868800605D42868800633
:1006D00002D428688006F3D530682D490840029975
:1006E0000843306020682B4908402B4908432060AC
:1006F0002868400612D5286840060FD528684006AD
:100700000CD528684006F3D408E02868800608D491
:100710002868800605D42868800602D428688006E8
:10072000F3D5194F3846FFF705FE04A97F2048701E
:100730000398087002223846FFF7E6FD2868800615
:1007400008D42868800605D42868800602D4286862
:100750008006F3D530680E4908400299084330609E
:1007600020680C4908400C4908432060286840066E
:100770001DD5286840061AD52868400617D5286870
:100780004006F3D413E0C04600000F4018120F409B
:1007900000F8FFFFF8FF00F007000200286880065D
:1007A00008D42868800605D42868800602D4286802
:1007B0008006F3D5F14F3846FFF7BCFD04A9A12010
:1007C00048700398087002223846FFF79DFD28689C
:1007D000800608D42868800605D42868800602D4DC
:1007E00028688006F3D53068E54908400299084337
:1007F00030602068E3490840E349084320602868E6
:10080000400612D5286840060FD5286840060CD54A
:1008100028684006F3D408E02868800608D42868D1
:10082000800605D42868800602D428688006F3D59F
:10083000D24F3846FFF77EFD04A9A62048700398E2
:10084000087002223846FFF75FFD2868800608D44A
:100850002868800605D42868800602D428688006A7
:10086000F3D53068C64908400299084330602068D3
:10087000C4490840C449084320602868400612D58E
:10088000286840060FD5286840060CD52868400621
:10089000F3D408E02868800608D42868800605D4C8
:1008A0002868800602D428688006F3D5B34F3846FE
:1008B000FFF740FD04A9A8204870039808700222A1
:1008C0003846FFF721FD2868800608D4286880068E
:1008D00005D42868800602D428688006F3D53068DD
:1008E000A74908400299084330602068A54908409C
:1008F000A549084320602868400612D528684006AC
:100900000FD5286840060CD528684006F3D408E0C7
:100910002868800608D42868800605D428688006E0
:1009200002D428688006F3D5944F3846FFF702FDBD
:1009300004A93F2048700398087002223846FFF748
:10094000E3FC2868800608D42868800605D4286857
:10095000800602D428688006F3D5306888490840AC
:100960000299084330602068864908408649084358
:1009700020602868400612D5286840060FD52868F0
:1009800040060CD528684006F3D408E028688006A5
:1009900008D42868800605D42868800602D4286810
:1009A0008006F3D5754F3846FFF7C4FC04A9A42090
:1009B00048700398087002223846FFF7A5FC2868A3
:1009C000800608D42868800605D42868800602D4EA
:1009D00028688006F3D530686949084002990843C1
:1009E00030602068674908406749084320602868EC
:1009F000400612D5286840060FD5286840060CD559
:100A000028684006F3D408E02868800608D42868DF
:100A1000800605D42868800602D428688006F3D5AD
:100A2000564F3846FFF786FC04A9D3204870039838
:100A3000087002223846FFF767FC2868800608D451
:100A40002868800605D42868800602D428688006B5
:100A5000F3D530684A49084002990843306020685D
:100A6000484908404849084320602868400612D594
:100A7000286840060FD5286840060CD5286840062F
:100A8000F3D408E02868800608D42868800605D4D6
:100A90002868800602D428688006F3D5374F384688
:100AA000FFF748FC04A903984870087002223846F2
:100AB000FFF72AFC2868800608D42868800605D439
:100AC0002868800602D428688006F3D530682C494F
:100AD000084002990843306020682A4908402A49A2
:100AE000084320602868400612D5286840060FD5C4
:100AF000286840060CD528684006F3D408E028682A
:100B0000800608D42868800605D42868800602D4A8
:100B100028688006F3D5194F3846FFF70BFC04A967
:100B2000D52048700398087002223846FFF7ECFB86
:100B30002868800608D42868800605D428688006BE
:100B400002D428688006F3D530680D490840029920
:100B50000843306020680B4908400B490843206077
:100B6000286840061BD52868400618D52868400626
:100B700015D528684006F3D411E0C04600000F40A8
:100B800000F8FFFFF8FF00F0070002002868800669
:100B900008D42868800605D42868800602D428680E
:100BA0008006F3D5F14F3846FFF7C4FB04A9F020C7
:100BB00048700398087002223846FFF7A5FB2868A2
:100BC000800608D42868800605D42868800602D4E8
:100BD00028688006F3D53068E54908400299084343
:100BE00030602068E3490840E349084320602868F2
:100BF000400612D5286840060FD5286840060CD557
:100C000028684006F3D408E02868800608D42868DD
:100C1000800605D42868800602D428688006F3D5AB
:100C2000D24F3846FFF786FB04A9D92048700398B5
:100C3000087002223846FFF767FB2868800608D450
:100C40002868800605D42868800602D428688006B3
:100C5000F3D53068C64908400299084330602068DF
:100C6000C4490840C449084320602868400612D59A
:100C7000286840060FD5286840060CD5286840062D
:100C8000F3D408E02868800608D42868800605D4D4
:100C90002868800602D428688006F3D5B34F38460A
:100CA000FFF748FB04A9222048700398087002222D
:100CB0003846FFF729FB2868800608D42868800694
:100CC00005D42868800602D428688006F3D53068E9
:100CD000F54908400299084330602068F34908400C
:100CE000F349084320602868400612D5286840066A
:100CF0000FD5286840060CD528684006F3D408E0D4
:100D00002868800608D42868800605D428688006EC
:100D100002D428688006F3D5E24F3846FFF70AFB75
:100D200004A9DA2048700398087002223846FFF7B9
:100D3000EBFA2868800608D42868800605D428685D
:100D4000800602D428688006F3D53068D64908406A
:100D50000299084330602068D4490840D4490843C8
:100D600020602868400612D5286840060FD52868FC
:100D700040060CD528684006F3D408E028688006B1
:100D800008D42868800605D42868800602D428681C
:100D90008006F3D5C34F3846FFF7CCFA04A91220DA
:100DA00048700398087002223846FFF7ADFA2868A9
:100DB000800608D42868800605D42868800602D4F6
:100DC00028688006F3D53068B7490840029908437F
:100DD00030602068B5490840B5490843206028685C
:100DE000400612D5286840060FD5286840060CD565
:100DF00028684006F3D408E02868800608D42868EC
:100E0000800605D42868800602D428688006F3D5B9
:100E1000A44F3846FFF78EFA04A9DB2048700398E8
:100E2000087002223846FFF76FFA2868800608D457
:100E30002868800605D42868800602D428688006C1
:100E4000F3D530689849084002990843306020681B
:100E5000964908409649084320602868400612D504
:100E6000286840060FD5286840060CD5286840063B
:100E7000F3D408E02868800608D42868800605D4E2
:100E80002868800602D428688006F3D5854F384646
:100E9000FFF750FA04A901984870039808700222DD
:100EA0003846FFF731FA2868800608D4286880069B
:100EB00005D42868800602D428688006F3D53068F7
:100EC0007949084002990843306020687749084012
:100ED0007749084320602868400612D528684006F4
:100EE0000FD5286840060CD528684006F3D408E0E2
:100EF0002868800608D42868800605D428688006FB
:100F000002D428688006F3D5664F3846FFF712FAF8
:100F100004A98D2048700398087002223846FFF714
:100F2000F3F92868800608D42868800605D4286864
:100F3000800602D428688006F3D530685A490840F4
:100F400002990843306020685849084058490843CE
:100F50002060286840061AD52868400617D52868FA
:100F6000400614D528684006F3D410E000000F4076
:100F700000F8FFFFF8FF00F0070002002868800675
:100F800008D42868800605D42868800602D428681A
:100F90008006F3D5ED4F3846FFF7CCF904A91420AD
:100FA00048700398087002223846FFF7ADF92868A8
:100FB000800608D42868800605D42868800602D4F4
:100FC00028688006F3D53068E34908400299084351
:100FD00030602068DF490840DB490843206028680A
:100FE000400612D5286840060FD5286840060CD563
:100FF00028684006F3D408E02868800608D42868EA
:10100000800605D42868800602D428688006F3D5B7
:10101000EE4F3846FFF78EF904A9AF2048700398C9
:10102000087002223846FFF76FF92868800608D456
:101030002868800605D42868800602D428688006BF
:10104000F3D53068C44908400299084330602068ED
:10105000C0490840BC49084320602868400612D5B2
:10106000286840060FD5286840060CD52868400639
:10107000F3D408E02868800608D42868800605D4E0
:101080002868800602D428688006F3D5CF48FFF789
:1010900051F901208102B148FFF7F9F800F03CF85E
:1010A00005B0F0BD00000F4000F8FFFFF8FF00F0B2
:1010B00007000200F0B581B004461078002827D060
:1010C0000D46561CA54F11E02038C0B206225043F1
:1010D00010490918E0B2C00128433818FFF778F822
:1010E000711C3078AD1D00280E4611D07B2D05D324
:1010F000641CE1B207290BD8002502E0E1B2072900
:10110000EED801467F39C9B2A129DDD20020DCE743
:1011100001B0F0BD34160000F0B58BB00020AB4C30
:101120008B4F0190054604E0029D6D1C082D00D1F7
:1011300008E107A901980870284650384870022233
:101140002046FFF7E1F83868800608D43868800642
:1011500005D43868800602D438688006F3D53A464C
:10116000083A10687C4908407821059108430692A6
:1011700010603A1F10687749084073490843049289
:1011800010603868400608D53868400605D53868CC
:10119000400602D538684006F3D43868800608D483
:1011A0003868800605D43868800602D4386880061E
:1011B000F3D52046FFF7BEF808A900264E700E7042
:1011C00002222046FFF7A0F83868800608D4386865
:1011D000800605D43868800602D438688006F3D5C6
:1011E000069A10685C490840059908431060049A03
:1011F0001068584908405449084310603868400650
:1012000008D53868400605D53868400602D53868E4
:101210004006F3D43868800608D43868800605D4C0
:101220003868800602D438688006F3D52046FFF778
:1012300081F809A9102048700E7002222046FFF79D
:1012400063F83868800608D43868800605D43868A2
:10125000800602D438688006F3D5069A10683E49A5
:101260000840059908431060049A106839490840FD
:101270003549084310603868400608D5386840068C
:1012800005D53868400602D538684006F3D438687A
:10129000800608D43868800605D43868800602D4F1
:1012A00038688006F3D52046FFF744F80295E80138
:1012B000039007E02C462846FFF73CF8761C802E6A
:1012C00000D131E7039880192449085C0AA94870C5
:1012D00040200870022225462046FFF715F838689E
:1012E000800608D43868800605D43868800602D4A1
:1012F00038688006F3D5069A1068174908400599A2
:1013000008431060049A1068124908400E490843C7
:1013100010603868400608D53868400605D538683A
:10132000400602D538684006F3D438688006C1D438
:1013300038688006BED438688006BBD4386880061A
:10134000F3D5B7E70BB0F0BD0700020000000F4077
:1013500018120F40F8FF00F000F8FFFF6000202097
:1013600006480749016041600121490602680A43B5
:10137000026042680A4342607047C04604804240AF
:1013800083000C0080B511481149FEF7E7FF0320E8
:101390004102104802680A43026001210A02036800
:1013A000134303600022426107224262836B93432E
:1013B00083631202836B93438363826A0423134320
:1013C0008362826A0A43826280BDC04600000F4089
:1013D0006E18000000120F400D480021016003202C
:1013E000C1430C48021F13680B401360416801227F
:1013F00091434160110242688A4342600168302291
:101400009143016001680F22914301607047C0461B
:1014100008030B4004010B4080B500F007F8FFF70C
:101420009FFFFFF7D9FFFFF7ADFF80BD80B50748ED
:1014300007494160074A5160074B596007490160FD
:10144000116019601020FEF75AFF80BD00080A40A5
:10145000030000B100280A4000080F4001000026E8
:101460008AB0FFF7D9FFFEF7A7FF002465A2204648
:101470002146FFF71FFE032066A22146FFF71AFE52
:10148000052068A22146FFF715FE38270A21099199
:101490000124384602972246FEF774FF3920039054
:1014A000092106912246FEF76DFF3A200790082693
:1014B000049631462246FEF765FF3B2528460195F6
:1014C00031462246FEF75EFF0B2108913846224640
:1014D000FEF758FF039F384609992246FEF752FF50
:1014E0000798069E31462246FEF74CFF28463146B5
:1014F0002246FEF747FF0C21059102982246FEF78F
:1015000041FF384608992246FEF73CFF0798099D9F
:1015100029462246FEF736FF019829462246FEF765
:1015200031FF4020039029462246FEF72BFF41273A
:101530003846019731462246FEF724FF42200290AA
:10154000049D29462246FEF71DFF432007902946A9
:101550002246FEF717FF039E304608992246FEF703
:1015600011FF384609992246FEF70CFF029F3846C4
:10157000069D29462246FEF705FF07982946224682
:10158000FEF700FF304605992246FEF7FBFE019864
:1015900008992246FEF7F6FE3846099D294622465E
:1015A000FEF7F0FE079829462246FEF7EBFE3C20A8
:1015B0000D2631462246FEF7E5FE3D2738463146E8
:1015C0002246FEF7DFFE3E25284631462246FEF73C
:1015D000D9FE3F2031462246FEF7D4FE0E2638467D
:1015E00031462246FEF7CEFE284631462246FEF719
:1015F000C9FE0F2128462246FEF7C4FEFFF78CFDE8
:10160000FEE7C046202049204C4F564520594F55F3
:1016100021000000202046726F6D204D53504D3048
:1016200000000000202047333530372026204F4C63
:101630004544000000000000000000005F000000C2
:10164000000700070000147F147F1400242A7F2A5B
:101650001200231308646200364955225000000529
:1016600003000000001C224100000041221C000079
:10167000082A1C2A080008083E080800005030000C
:101680000000080808080800006060000000201042
:10169000080402003E5149453E0000427F400000E0
:1016A0004261514946002141454B31001814127FD7
:1016B00010002745454539003C4A49493000017131
:1016C00009050300364949493600064949291E00E3
:1016D00000363600000000563600000000081422D4
:1016E00041001414141414004122140800000201D3
:1016F00051090600324979413E007E1111117E00E8
:101700007F49494936003E41414122007F41412203
:101710001C007F49494941007F09090101003E4100
:10172000415132007F0808087F0000417F410000DE
:101730002040413F01007F08142241007F4040408B
:1017400040007F0204027F007F0408107F003E41BA
:1017500041413E007F09090906003E4151215E00DA
:101760007F091929460046494949310001017F0195
:1017700001003F4040403F001F2040201F007F20CD
:1017800018207F0063140814630003047804030026
:1017900061514945430000007F41410002040810A7
:1017A000200041417F00000004020102040040408B
:1017B00040404000000102040000205454547800CE
:1017C0007F48444438003844444420003844444866
:1017D0007F00385454541800087E09010200081490
:1017E00054543C007F080404780000447D4000000D
:1017F0002040443D0000007F1028440000417F400D
:1018000000007C04180478007C0804047800384444
:10181000444438007C1414140800081414187C0084
:101820007C0804040800485454542000043F4440F9
:1018300020003C4040207C001C2040201C003C40FC
:1018400030403C004428102844000C5050503C00CC
:101850004464544C440000083641000000007F00FE
:1018600000000041360800000804081008000800C5
:101870008018000000002020600500002801000002
:04000005000000C136
:00000001FF
