:020000040000FA
:10000000280E2020FD010000010200000302000074
:1000100000000000000000000000000000000000E0
:1000200000000000000000000000000005020000C9
:1000300000000000000000000702000009020000AC
:100040000B0200000B0200000B020000FD16000076
:100050000B0200000B0200000B0200000B0200006C
:10006000000000000B0200000B0200000000000076
:10007000000000000B0200000B0200000B02000059
:100080000B0200000B0200000B0200000B0200003C
:100090000B0200000B020000000000000000000046
:1000A0000B0200000B020000000000000000000036
:1000B0000B020000000000000B0200000B02000019
:1000C00000F002F800F06EF812A030C808382418CA
:1000D0002D18AC4201D100F065F80FCCA246AB461A
:1000E0000CA730CF2D1B083F3F197C427F1E544484
:1000F0002D090426F441641EAC4201D300F052F8ED
:100100000126334200D0FB1A3343984754465D46DC
:10011000DFE70000C41D0000E41D00000000000037
:10012000103A02D378C878C1FAD8520701D330C840
:1001300030C101D504680C60704700000000000069
:100140007047000000000000002300240025002666
:10015000103A01D378C1FBD8520700D330C100D583
:100160000B60704710B5642902D100F0CDF810BDC6
:10017000752902D100F0C8F810BD782902D100F02D
:10018000F9F810BD632902D100F0DDFB10BD732921
:1001900002D100F0E0FB10BD002010BD1FB51FBD57
:1001A00010B510BD00F0EFFB1146FFF7F7FF01F0AF
:1001B000E1FA00F007FC03B4FFF7F2FF03BC00F024
:1001C0000DFC000070B505460C46164602E00FCC4B
:1001D0000FC5103E102EFAD2082E02D303CC03C551
:1001E000083E042E07D301CC01C5361F03E0217859
:1001F0002970641C6D1C761EF9D270BD064800473C
:10020000FEE7FEE7FEE7FEE7FEE7FEE703480449F8
:10021000024A044B70470000C1000000280D202056
:10022000280E2020280D20200FB41CB50C0007AA92
:10023000009007D04142A14202D30019401E01E0C4
:100240000020C043074B7B4469460190069800F0AC
:1002500054FB0020002C01D0009908701CBC08BC85
:1002600004B01847D706000070B5044685690068D9
:10027000C10601D5302600E02026C00707D070BD9A
:1002800062683046A1689047206A401C20626D1E5B
:10029000F6D570BD70B5044685690078C00707D1F2
:1002A00070BD6268A16820209047206A401C2062CF
:1002B0006D1EF6D570BD70B50C460546012A05D0F9
:1002C0002878800600D5EA69002302E0012305E0D2
:1002D0005B1C934202D2E05C0028F9D1A869E618C1
:1002E000C01AA861286AC01828622846FFF7BCFF18
:1002F00004E06A682078A968641C9047B442F8D387
:100300002846FFF7C7FF70BDF7B5002575291068AF
:10031000009914A611D0C046C046002802DA404217
:1003200011A608E0009909688A0701D50FA602E026
:10033000490704D50EA6012501E0C046C046009F2E
:100340000024243704E000F00AFB30313955641CE6
:100350000028F8D12B4632462146009800F06FFA6B
:10036000FEBD0000000000002D0000002B0000007A
:100370002000000070B504460D4621461068C046B6
:10038000C0462188090502D50F4A7A4402E00E4A88
:100390007A440E3223460021243305E00607000983
:1003A000360F965D5E54491C0028F7D12078002353
:1003B000000705D5702D03D0002901D0022311328A
:1003C000204600F03CFA70BDFA180000F3B5044670
:1003D000002081B020622046E1688847002872D062
:1003E000252802D06268A168ABE0594F00267F44FF
:1003F0002046E16888472028054608DB312D06D2D3
:10040000781920380078002801D00643F0E7B007BB
:1004100001D5042086430020E0610746A0612A2D13
:100420000AD0284601F029FC002827D0B80000197E
:10043000303D0090856119E00298BA00121902C897
:10044000916102902046E1688847012F054617D147
:10045000E06900281FDA202086431CE000980A216A
:100460008069484300994019303888612046E16826
:100470008847054601F001FC0028EFD1012F0AD082
:100480002E2D08D12046E1688847054620200643E6
:100490007F1C022FC3DBA069002803DA4042A06161
:1004A00001200643F00701D0102086436C2D0BD0AD
:1004B000682D09D04C2D3CD06A2D38D0742D38D001
:1004C0007A2D36D016E040E0E1682F462046884776
:1004D000B842054609D16C2F29D001208002E1687D
:1004E000064320468847054604E06C2F1DD0FF20B8
:1004F00001300643002D28D028464138192803D85A
:100500000120C00206432035204626602946029A73
:100510001646FFF727FE002810D001280BD0F61D45
:10052000F008C0000830029055E74020E1E7802045
:10053000D5E70020D3E7361D02964CE762682846CF
:10054000A1689047206A401C44E7206AFEBD000075
:10055000BE18000030B505460B462A461C781078B8
:10056000521C5B1C002801D0A042F7D0002C03D005
:10057000002802D06D1CEFE7284630BDF8B5042AEC
:100580002CD3830712D00B78491C0370401C521ED9
:1005900083070BD00B78491C0370401C521E830745
:1005A00004D00B78491C0370401C521E8B079B0F14
:1005B00005D0C91ADF002023DE1B08C90AE0FFF7B7
:1005C00001FEF8BD1D4608C9FD401C46B4402C4341
:1005D00010C0121F042AF5D2F308C91A521EF0D413
:1005E0000B78491C0370401C521EEAD40B78491C3E
:1005F0000370401C012AE4D409780170F8BD01E0C1
:1006000004C0091F0429FBD28B0701D50280801C7E
:10061000C90700D00270704700290BD0C30702D071
:100620000270401C491E022904D3830702D50280B0
:10063000801C891EE3E70022EEE70022DFE70000CE
:10064000002203098B4273D3030A8B4258D3030B56
:100650008B423CD3030C8B4221D312E003460B4365
:100660007FD4002243088B4274D303098B425FD3AB
:10067000030A8B4244D3030B8B4228D3030C8B42D7
:100680000DD30902FF2212BA030C8B4202D31212BD
:10069000090265D0030B8B4219D300E0090AC30B92
:1006A0008B4201D3CB03C01A5241830B8B4201D33F
:1006B0008B03C01A5241430B8B4201D34B03C01A28
:1006C0005241030B8B4201D30B03C01A5241C30AA0
:1006D0008B4201D3CB02C01A5241830A8B4201D311
:1006E0008B02C01A5241430A8B4201D34B02C01AFB
:1006F0005241030A8B4201D30B02C01A5241CDD2A0
:10070000C3098B4201D3CB01C01A524183098B42EA
:1007100001D38B01C01A524143098B4201D34B01D3
:10072000C01A524103098B4201D30B01C01A524136
:10073000C3088B4201D3CB00C01A524183088B42BD
:1007400001D38B00C01A524143088B4201D34B00A6
:10075000C01A5241411A00D2014652411046704718
:100760005DE0CA0F00D04942031000D3404253401D
:100770009C46002203098B422DD3030A8B4212D3DD
:100780008901FC2212BA030A8B420CD3890192110F
:100790008B4208D3890192118B4204D389013AD04C
:1007A000921100E08909C3098B4201D3CB01C01A21
:1007B000524183098B4201D38B01C01A5241430934
:1007C0008B4201D34B01C01A524103098B4201D322
:1007D0000B01C01A5241C3088B4201D3CB00C01A8F
:1007E000524183088B4201D38B00C01A5241D9D2A7
:1007F00043088B4201D34B00C01A5241411A00D228
:1008000001465241104663465B1001D34042002B23
:1008100000D54942704763465B1000D3404201B5A2
:100820000449002802DC491C084000E00846C04694
:10083000C04602BDFFFFFF7F704770477047FFB59E
:1008400004460D4681B0243000902168880604D506
:100850001022E0699143216000E00120A84201DDFF
:10086000471B00E000270498A1697A191018081A9C
:10087000A0612078C00602D42046FFF7F5FC0026D0
:1008800008E003986268A168805D9047206A401C78
:10089000761C206204988642F3DB2078C0060AD5D5
:1008A0002046FFF7E1FC06E06268A168302090472F
:1008B000206A401C206238467F1E0028F4DC07E0D6
:1008C00000986268A168405D9047206A401C2062E1
:1008D00028466D1E0028F3DC2046FFF7DBFC20785D
:1008E000000602D5022005B0F0BD0120FBE70000A4
:1008F00001694A1C02610878704700B58FB0029107
:100900000021059105490193794403911146049012
:100910006846FFF75BFD0FB000BD0000E5FFFFFF7D
:100920000CC908399A4202D2531C0B6010707047F0
:1009300010B54369002B02D0C046C04601E0FFF766
:10094000BAFC012010BD1278014624310A70002241
:100950004A700122ECE711680022D243E8E7014621
:100960008008081A02091018020A1018020C101840
:10097000C008820012185200891A01E0401C0A398E
:100980000A29FBD27047754600F024F8AE460500F0
:1009900069465346C008C000854618B020B5FFF729
:1009A00035FC60BCB64600260027C0C5C0C5C0C522
:1009B000C0C5C0C5C0C5C0C5C0C5403D4908490087
:1009C0008D46704710B50446C046C0462046FFF726
:1009D000F2FB10BD00487047380020200149182064
:1009E000ABBEFEE7260002007047811E091F00BF54
:1009F000FCD2704710B5002A0FD091235B01C318B9
:100A00000020DC692405240F05D00C5C1C60401C10
:100A10008242F6D1104680B210BD002080B210BDD7
:100A200070B50A780C231A400124240305196E6856
:100A30009E43B2186A6049780722114003599343D4
:100A40005918015170BD0000B0B51122120283582F
:100A50000124A34383500B888C781C438B88234349
:100A6000094C1C408358094D1D40631983508B79F4
:100A7000CC791C43097A21437E23194080184268AF
:100A80009A4351184160B0BD18670000E798FDFF18
:100A90000C49401801684907FCD4C069C0B27047CE
:100AA00010B50122120383180C789C60497881509C
:100AB00010BD0000034A801802681206FCD4816150
:100AC0007047C04608110000F0B581B000F022F96F
:100AD0008B4F3A78002A01D0012100E002215042D8
:100AE00050417D78002D00D00146BB78002B00D10D
:100AF000491CFC78002C00D1491C3E79002E00D105
:100B0000491C7F79002F00D1491C7D48807900283D
:100B100005D0002A06D00022002D07D007E0491C8E
:100B2000002AF8D10622D243002D00D1521F002BFB
:100B300011D0002C12D0002E13D0002F00D1D21CC7
:100B40006F4B002800D1521DD87900280DD008061F
:100B50000DD100200FE0D21E002CECD1521E002E31
:100B6000EBD1521C002FEAD0EAE7D21D491C50B24B
:100B700049B200F0A9FF40B201B0F0BDB0B5002805
:100B80003ED0044600F0C6F85D4D03CD21712070C3
:100B90005D4A127822720A0EE2710A0CA271090AE9
:100BA0006171010EE170010CA170000A6070083DD6
:100BB00000F0B0F82978484248416978002900D10E
:100BC000401CA978002900D1401CE978002900D1F7
:100BD000401C2979002900D1401C6979002900D1E5
:100BE000401CA979002900D1401CE979002900D1D5
:100BF000401C6072FFF768FFA072E4480078E07262
:100C0000B0BDC046B0B5002819D0044600F082F847
:100C1000D248016842688368C568E560A360626085
:100C20002160016942698369C569E561A361626107
:100C30002161016A426A806AA06262622162B0BD7B
:100C400070B50120C102C448FFF7F7FCC34C2C214A
:100C50002046FFF7F2FC2D2020766076A076E07625
:100C600020776077A077E0771934E07120726072A6
:100C7000A072E07220736073A073E0730020207490
:100C8000B4490880AF490880B1490870AE4908707E
:100C9000AE490870BD490870BB481A4901604160FF
:100CA000BB48FF210170194D28684007CA4C05D484
:100CB0002046FFF7EDFE28684007F9D514480821C3
:100CC000016024212046FFF7F5FE30252046294605
:100CD000FFF7F0FE2C2620463146FFF7EBFE2046BC
:100CE0002946FFF7E7FE20463146FFF7E3FE3121B4
:100CF0002046FFF7DFFE23212046FFF7DBFE70BD15
:100D00003000202001010101000020200811504086
:100D100000E100E0F0B585B08A4D29888A4E307830
:100D200001908A4800788A4A14788A4A1288914247
:100D300001D105B0F0BD0121009105E010462988E0
:100D4000844A12889142F4D029884A1C2A80824A17
:100D5000515C2A88D20A01D000222A800D2903D0B2
:100D60000A2903D16E220AE0722208E05E22D243F1
:100D70000B467F3B934201D30A4600E02E22631CC0
:100D8000734F3B70E4B2754F3C196276DAB2102AA9
:100D900002D300236E4A13701C4629230022FA5402
:100DA000242909D1009931706848017024206C4AC7
:100DB000107001910846C2E7C007BFD0019A7F2A90
:100DC00032D2674B9954521C32702329019233D18D
:100DD000002098545D490870597841292ED0442943
:100DE00031D1B868401CB860012100275DA603E03E
:100DF000361D7F1C082F2BD00D46062F01D23168DF
:100E000003E001D05EA100E05CA15548FFF7A2FB22
:100E100000210028ECD0C0783038C2B2012AE7D8CF
:100E200002A9C8552946E3E70021317047480170FF
:100E30003869401C3861BCE7009880E7F968491CB4
:100E4000F960412102E03A69521C3A61397676E74D
:100E50000029424F30D0039802994B4A11605060EC
:100E6000009A4A4B1A704205CB0A9A181F239A43DC
:100E700083078D08EB183F25AB43CD011D43154378
:100E8000090DF0220A402A43C10011438209FC23C4
:100E900013400B43C10BFE220A401A43000E1043BD
:100EA0003B490870381D0168491C016044203876B0
:100EB0000020244D244E42E73846103028498E78D1
:100EC000002EF0D0002302252A46194607E0012310
:100ED000224F234E521CD5B2765D002E2ED0F7B293
:100EE000232F2AD0082928D22C2FF0D03A2F0FD127
:100EF0001B4EAB195B78FE251D40302D06D1521CD0
:100F0000D3B2F35C303B02AD6B54491C002312E0BA
:100F1000303EF5B2012D05D8002B03D002AD6E5442
:100F2000491CD5E70A3F162F0D4EEFD80125BD40CD
:100F3000144F3D42EAD0094FCCE7084F08298AD028
:100F4000B1E7C046200920201A01202019012020E5
:100F5000220920201C012020200120200400202024
:100F600098002020BF1E0000C31E0000C71E000006
:100F7000CB1E0000CF1E0000D31E000078373A00C1
:100F800078383A0009004000300020201801202065
:100F90000000202070B5104C24212046FFF78AFD68
:100FA000302520462946FFF785FD2C262046314670
:100FB000FFF780FD20462946FFF77CFD204631469D
:100FC000FFF778FD31212046FFF774FD23212046ED
:100FD000FFF770FD70BDC0460000504080B5012095
:100FE00081026C48FFF729FB80BDC046F0B58FB089
:100FF00043A002A91CC81CC11CC81CC11CC81CC120
:101000003CC83CC100204B4D4B4E4F4C02E0B81C3D
:10101000302F6BD2074601953068800618D40198AE
:10102000401E019014D03068800611D40198401EF3
:1010300001900DD0306880060AD40198401E0190BE
:1010400006D03068800603D40198401E0190E3D199
:1010500002A8C11902223948FFF7CCFC30460838F3
:101060000168374A114078310160301F0168354A04
:1010700011400919016001953068400618D40198A3
:10108000401E019014D03068400611D40198401ED3
:1010900001900DD0306840060AD40198401E01909E
:1010A00006D03068400603D40198401E0190E3D179
:1010B000019530688006AAD40198401E0190A6D000
:1010C00030688006A3D40198401E01909FD03068FC
:1010D00080069CD40198401E019098D0306880060C
:1010E00095D40198401E0190E3D190E70120810240
:1010F0002848FFF7A2FA00F051F80FB0F0BDC04643
:1011000000AE00D5008000A8003F00D300000040E2
:10111000008D00140020000000A100C800DA0012B9
:10112000008100CF00D900F100DB004000A400A640
:1011300000AF0000F049020018120F4000000F40FD
:1011400000F8FFFFF8FF00F007000200F0B581B0E3
:101150000446107800281BD00D467A2918D8E101E2
:101160000C4B5E18571C072C0AD82038C1B25E29D8
:1011700006D8701905225143074B5918FFF7FEF99D
:101180003878002804D0A91D7F1C752D0D46EAD3A0
:1011900001B0F0BD24092020C11C0000F0B583B0CF
:1011A0000024EE4FEE4D009403E0641C082C00D1A7
:1011B000CFE102A800990170214650394170019792
:1011C0002868800619D40198401E019064D02868D0
:1011D000800612D40198401E01905DD028688006D8
:1011E0000BD40198401E019056D02868800604D484
:1011F0000198401E0190E3D14EE002A90222FB4873
:10120000FFF7F8FB284608380168D74A11407822D2
:101210000A430260281F0168D24A1140CE4A114396
:10122000016001972868400619D40198401E01907A
:1012300032D02868400612D40198401E01902BD06D
:10124000286840060BD40198401E019024D02868DD
:10125000400604D40198401E0190E3D11CE00197A0
:101260002868800618D40198401E019014D0286880
:10127000800611D40198401E01900DD02868800688
:101280000AD40198401E019006D02868800603D435
:101290000198401E0190E3D102A800264670067016
:1012A00001972868800619D40198401E019064D0E7
:1012B0002868800612D40198401E01905DD02868ED
:1012C00080060BD40198401E019056D028688006F5
:1012D00004D40198401E0190E3D14EE002A90222FD
:1012E000C248FFF787FB2846083801689E4A11402C
:1012F00078220A430260281F01689A4A1140964AE0
:101300001143016001972868400619D40198401ED6
:10131000019032D02868400612D40198401E0190F6
:101320002BD0286840060BD40198401E019024D091
:101330002868400604D40198401E0190E3D11CE0C7
:1013400001972868800618D40198401E019014D097
:101350002868800611D40198401E01900DD028689D
:1013600080060AD40198401E019006D028688006A5
:1013700003D40198401E0190E3D102A810214170CE
:10138000067001972868800619D40198401E0190C4
:1013900069D02868800612D40198401E019062D05E
:1013A000286880060BD40198401E01905BD0286805
:1013B000800604D40198401E0190E3D153E002A9B5
:1013C00002228A48FFF716FB284608380168664A59
:1013D000114078220A430260281F0168614A1140C7
:1013E0005D4A1143016001972868400619D40198AD
:1013F000401E019037D02868400612D40198401E44
:10140000019030D0286840060BD40198401E01900E
:1014100029D02868400604D40198401E0190E3D1E9
:1014200021E00197286880061DD40198401E019094
:1014300019D02868800616D40198401E019012D059
:10144000286880060FD40198401E01900BD02868B0
:10145000800608D40198401E0190E3D103E0761C79
:10146000802E00D1A1E6E00140490818805D02A964
:1014700048704020087001972868800619D40198A8
:10148000401E0190EBD02868800612D40198401EBF
:101490000190E4D0286880060BD40198401E01908A
:1014A000DDD02868800604D40198401E0190E3D165
:1014B000D5E702A902224D48FFF79CFA28460838D2
:1014C0000168294A114078220A430260281F0168F6
:1014D000244A1140204A11430160019728684006C0
:1014E00019D40198401E0190B9D02868400612D442
:1014F0000198401E0190B2D0286840060BD4019894
:10150000401E0190ABD02868400604D40198401ECC
:101510000190E3D1A3E70197286880069FD4019842
:10152000401E01909BD02868800698D40198401EE8
:10153000019094D02868800691D40198401E0190B3
:101540008DD0286880068AD40198401E0190E3D18E
:1015500085E703B0F0BDC04607000200F049020075
:1015600018120F40F8FF00F000F8FFFF24092020B8
:1015700008480949016041600121490602680A439F
:10158000026042680A434260044884214160044981
:10159000016070470480424083000C008C80424010
:1015A0008400040080B511481149FFF739FA03207F
:1015B0004102104802680A43026001210A020368DE
:1015C000134303600022426107224262836B93430C
:1015D00083631202836B93438363826A04231343FE
:1015E0008362826A0A43826280BDC04600000F4067
:1015F0009C1E000000120F400D48002101600320D6
:10160000C1430C48021F13680B401360416801225C
:1016100091434160110242688A434260016830226E
:101620009143016001680F22914301607047C046F9
:1016300008030B4004010B4010B54A4C14492046E6
:10164000FFF72EFA13492046FFF7FEF90320C103E6
:10165000114802688A4302600169104A0A40113247
:101660000261416917220A4328218A434261416885
:101670000122114043689343591841609102084B7D
:101680001C680C431C6001681143016010BDC0461A
:101690009E1E0000A01E0000001150400000FFFF31
:1016A0002810504080B500F009F8FFF761FFFFF700
:1016B000A3FFFFF777FFFFF7BFFF80BD10B5094815
:1016C00009494160094A5160094B5960094C616000
:1016D000094901601160196021601020FFF785F948
:1016E00010BDC04600080A40030000B100280A40AF
:1016F00000080F400008504001000026F0B581B0FE
:1017000015480068C0B20B2823D114480068400770
:101710001FD4134E144F154D06E07869401C7861B4
:101720000E480068400714D434880E48FFF7B0F91B
:101730003968491C3960611C8AB2D20A00D0002184
:101740008AB22B889A42E8D03288094B985431806B
:10175000E6E701B0F0BDC0462010504008115040EF
:101760001C012020000050400400202020092020DF
:1017700020012020A6B0FFF795FFFFF737FCFFF709
:101780005FFAFFF72BFC02200C2193A2FFF7DEFC8F
:101790000420122194A2FFF7D9FCFFF7FFFC7D2063
:1017A000C500440101E06D1E21D0FFF7B3FA002708
:1017B00017971798A042F6D200BF1798401C1790B1
:1017C0001798A042EFD200BF1798401C17901798A7
:1017D000A042E8D200BF1798401C17901798A0426B
:1017E000E1D200BF1798401C1790E2E70E9F22AD90
:1017F0002846FFF7C3F917A8FFF704FA7F1C142146
:101800003846FEF71DFFE87A002803D1002901D1F0
:10181000FFF7C0FBFFF7E2FB22AEF07A0028754825
:1018200000D075A0009011AD16212846109173A22A
:101830000E973B46FEF7F8FC0027384639460F95D1
:101840002A46FFF783FC012039466F4AFFF77EFCEA
:10185000F07958234F220028184600D010463178DE
:101860000D9171780C91B1780B91F1780A913179E1
:101870000991717908911146B2790690002A1846AB
:1018800000D00846059008980028184600D0084661
:10189000049009980028184600D0084603900A983A
:1018A0000028184600D0084602900B9800281846D9
:1018B00000D0084601900C980028184600D0084631
:1018C00000900D98002800D00B460F9D28461099D7
:1018D0004EA2FEF7A9FC022039462A46FFF736FC45
:1018E000307A0D9030780A907178B278F378357943
:1018F0000C957579B0790B90F07909900A98009061
:101900000191029203930C98049005950B98069010
:10191000099807900F9D2846109942A20D9BFEF74B
:1019200083FC032039462A46FFF710FC0A20335671
:10193000707A00902846109E314641A2FEF774FC52
:10194000042039462A46FFF701FC189B1B9800909B
:10195000284631463EA2FEF767FC052039462A4656
:10196000FFF7F4FB179B1C980090284631463CA2D9
:10197000FEF75AFC062039462A46FFF7E7FB072008
:1019800039463BA2FFF7E2FBFFF708FC642502E0C3
:101990006D1E00D12AE7FFF7BDF925972598A042D3
:1019A000F6D200BF2598401C25902598A042EFD282
:1019B00000BF2598401C25902598A042E8D200BF82
:1019C0002598401C25902598A042E1D200BF25987B
:1019D000401C2590E2E7C0463863682049522053F6
:1019E000656E736F72000000496E6974204F4B2E54
:1019F0002E2E0000BA1E00004F4B00003849522026
:101A000023256C7520257300AA1E00002563202560
:101A1000632025632025632025632025632025631B
:101A2000202563005261773A3078253032582025DE
:101A300075257525752575257525752575257500FB
:101A4000506F733A252B6420636E743A257500003D
:101A5000443A256C75206261643A256C750000007B
:101A600052583A256C75206F763A256C7500000047
:101A70005041313454205041313352205041302FA5
:101A80003100000043088B421AD3002203098B4225
:101A900079D3030A8B425ED3030B8B4242D3030CF0
:101AA0008B4227D30902FF2212BA030C8B4202D3C6
:101AB0001212090203D0030B8B4233D31AE0D3E096
:101AC000411A8041401C704703460B4371D44308C0
:101AD0008B42F5D3002203098B4254D3030A8B4275
:101AE00039D3030B8B421DD3030C8B4202D3944694
:101AF0006EE0090AC30B8B4201D3CB03C01A5241DB
:101B0000830B8B4201D38B03C01A5241430B8B4290
:101B100001D34B03C01A5241030B8B4201D30B0379
:101B2000C01A5241C30A8B4201D3CB02C01A5241A0
:101B3000830A8B4201D38B02C01A5241430A8B4263
:101B400001D34B02C01A5241030A8B4201D30B024C
:101B5000C01A5241CDD2C3098B4201D3CB01C01A66
:101B6000524183098B4201D38B01C01A5241430970
:101B70008B4201D34B01C01A524103098B4201D35E
:101B80000B01C01A5241C3088B4201D3CB00C01ACB
:101B9000524183088B4201D38B00C01A5241430843
:101BA0008B4201D34B00C01A5241411A52411000DE
:101BB0007047CA0F00D04942031000D3404253403F
:101BC00000229C4603098B422DD3030A8B4212D379
:101BD0008901FC2212BA030A8B420CD389019211AB
:101BE0008B4208D3890192118B4204D3890137D0EB
:101BF000921100E08909C3098B4201D3CB01C01ABD
:101C0000524183098B4201D38B01C01A52414309CF
:101C10008B4201D34B01C01A524103098B4201D3BD
:101C20000B01C01A5241C3088B4201D3CB00C01A2A
:101C3000524183088B4201D38B00C01A5241D9D242
:101C400043088B4201D34B00C01A5241411A00D2C3
:101C500001465241104663465B1000D34042704734
:101C600063465B1000D3404201B50021004201D021
:101C7000C9430846C046C04602BD30380A2801D2D2
:101C80000120704700207047303132333435363709
:101C900038394142434445464030580030313233B0
:101CA00034353637383961626364656640307800B0
:101CB0000400000800000000000000020001000015
:101CC00010000000000000005F0000000700070097
:101CD000147F147F14242A7F2A1223130864623687
:101CE000495522500005030000001C22410000411C
:101CF000221C00082A1C2A0808083E080800503048
:101D000000000808080808006060000020100804AF
:101D1000023E5149453E00427F40004261514946E2
:101D20002141454B311814127F1027454545393C58
:101D30004A4949300171090503364949493606497E
:101D400049291E00363600000056360000000814EF
:101D500022411414141414412214080002015109E0
:101D600006324979413E7E1111117E7F494949363B
:101D70003E414141227F4141221C7F494949417FE7
:101D8000090901013E414151327F0808087F0041A5
:101D90007F41002040413F017F081422417F4040A5
:101DA00040407F0204027F7F0408107F3E41414192
:101DB0003E7F090909063E4151215E7F09192946E6
:101DC000464949493101017F01013F4040403F1FE1
:101DD0002040201F7F2018207F6314081463030411
:101DE000780403615149454300007F4141020408E2
:101DF000102041417F0000040201020440404040A5
:101E000040000102040020545454787F4844443870
:101E10003844444420384444487F385454541808C3
:101E20007E090102081454543C7F080404780044DD
:101E30007D40002040443D00007F10284400417F49
:101E400040007C041804787C080404783844444436
:101E5000387C14141408081414187C7C0804040832
:101E60004854545420043F4440203C4040207C1CB3
:101E70002040201C3C4030403C44281028440C505A
:101E800050503C4464544C44000836410000007FEC
:101E90000000004136080008040810080800080087
:101EA00000001800000000300000312032203320F4
:101EB00034203520362037203800574149540078E7
:101EC000313A0078323A0078333A0078343A007880
:101ED000353A0078363A0000F81E00000000202055
:101EE0003800000020010000301F000038002020D2
:101EF000F00D000048010000FF000000000000009D
:101F000000000000000000000000000000000000D1
:101F1000000000002D2D2D2D2D2D2D2D2D2D2D2DA5
:101F20002D2D2D2D2D0000000101010101010101C8
:04000005000000C136
:00000001FF
