:020000040000FA
:1000000090052020ED010000F1010000F301000047
:1000100000000000000000000000000000000000E0
:10002000000000000000000000000000F5010000DA
:100030000000000000000000F7010000F9010000CE
:10004000FB010000FB010000FB010000FB010000C0
:10005000FB010000FB010000FB010000FB010000B0
:1000600000000000FB010000FB0100000000000098
:1000700000000000FB010000FB010000FB0100008C
:10008000FB010000FB010000FB010000FB01000080
:10009000FB010000FB010000000000000000000068
:1000A000FB010000FB010000000000000000000058
:1000B000FB01000000000000FB010000FB0100004C
:1000C00000F002F800F067F812A030C808382418D1
:1000D0002D18AC4201D100F05EF80FCCA246AB4621
:1000E0000CA730CF2D1B083F3F197C427F1E544484
:1000F0002D090426F441641EAC4201D300F04BF8F4
:100100000126334200D0FB1A3343984754465D46DC
:10011000DFE70000E44600000447000000000000A4
:10012000103A02D378C878C1FAD8520701D330C840
:1001300030C101D504680C60704700000000000069
:100140007047000000000000002300240025002666
:10015000103A01D378C1FBD8520700D330C100D583
:100160000B60704710B5662902D104F0D9F910BDB3
:10017000752902D100F098F810BD002010BD1FB500
:1001800000F072FF04000020002104F04DF8E06050
:100190001FBD10B510BD01F053FB1146FFF7EFFF77
:1001A00003F074FB01F06BFB03B4FFF7F2FF03BC39
:1001B00001F016FC70B505460C46164602E00FCC61
:1001C0000FC5103E102EFAD2082E02D303CC03C561
:1001D000083E042E07D301CC01C5361F03E0217869
:1001E0002970641C6D1C761EF9D270BD064800474C
:1001F000FEE7FEE7FEE7FEE7FEE7FEE70348044909
:10020000024A044B70470000C10000009004202007
:1002100090052020900420200FB41CB50C0007AAE4
:10022000009007D04142A14202D30019401E01E0D4
:100230000020C043074B7B4469460190069800F0BC
:100240007AFE0020002C01D0009908701CBC08BC6C
:1002500004B01847230D000070B504468569006896
:10026000C10601D5302600E02026C00707D070BDAA
:1002700062683046A1689047206A401C20626D1E6B
:10028000F6D570BD70B5044685690078C00707D102
:1002900070BD6268A16820209047206A401C2062DF
:1002A0006D1EF6D570BD0000F7B5002575291068E4
:1002B000009914A611D0C046C046002802DA404278
:1002C00011A608E0009909688A0701D50FA602E087
:1002D000490704D50EA6012501E0C046C046009F8F
:1002E0000024243704E000F041FE30313955641C0D
:1002F0000028F8D12B4632462146009800F0B4FB86
:10030000FEBD0000000000002D0000002B000000DA
:1003100020000000F3B50446002081B02062204692
:10032000E1688847002872D0252802D06268A16859
:10033000ABE0594F00267F442046E16888472028DB
:10034000054608DB312D06D27819203800780028C0
:1003500001D00643F0E7B00701D504208643002012
:10036000E0610746A0612A2D0AD0284603F064FD0B
:10037000002827D0B8000019303D0090856119E0B1
:100380000298BA00121902C8916102902046E168F1
:100390008847012F054617D1E06900281FDA202081
:1003A00086431CE000980A2180694843009940195F
:1003B000303888612046E1688847054603F03CFDF7
:1003C0000028EFD1012F0AD02E2D08D12046E16858
:1003D00088470546202006437F1C022FC3DBA06907
:1003E000002803DA4042A06101200643F00701D053
:1003F000102086436C2D0BD0682D09D04C2D3CD09D
:100400006A2D38D0742D38D07A2D36D016E040E0E1
:10041000E1682F4620468847B842054609D16C2F2F
:1004200029D001208002E16806432046884705461E
:1004300004E06C2F1DD0FF2001300643002D28D092
:1004400028464138192803D80120C0020643203528
:10045000204626602946029A1646FFF783FE0028AA
:1004600010D001280BD0F61DF008C0000830029013
:1004700055E74020E1E78020D5E70020D3E7361D8F
:1004800002964CE762682846A1689047206A401CA3
:1004900044E7206AFEBD0000F6410000F8B5042ADA
:1004A0002CD3830712D00B78491C0370401C521EBA
:1004B00083070BD00B78491C0370401C521E830726
:1004C00004D00B78491C0370401C521E8B079B0FF5
:1004D00005D0C91ADF002023DE1B08C90AE0FFF798
:1004E00069FEF8BD1D4608C9FD401C46B4402C43BA
:1004F00010C0121F042AF5D2F308C91A521EF0D4F4
:100500000B78491C0370401C521EEAD40B78491C1E
:100510000370401C012AE4D409780170F8BD431A25
:1005200070B593421BD28918801804E0491E401E02
:100530000B78521E03709307F8D106E0103910387B
:1005400078C9103978C01038103A102AF6D203E072
:10055000091F001F0B680360121FF9D570BDFFF75C
:1005600029FE70BDF8B5064614460843800707D03B
:10057000751AA54219D20819102D13D2311907E0A6
:100580003046FFF7CCFFF8BD401E491E02780A70C6
:10059000641EF9D2F8BD471B2A463946FFF77EFF95
:1005A000641B3846A542F6D3011B22463046FFF7AE
:1005B00075FFF8BD01E004C0091F0429FBD28B07B9
:1005C00001D50280801CC90700D002707047002945
:1005D0000BD0C30702D00270401C491E022904D36D
:1005E000830702D50280801C891EE3E70022EEE724
:1005F0000022DFE7002203098B4273D3030A8B42F8
:1006000058D3030B8B423CD3030C8B4221D312E013
:1006100003460B437FD4002243088B4274D3030963
:100620008B425FD3030A8B4244D3030B8B4228D304
:10063000030C8B420DD30902FF2212BA030C8B422A
:1006400002D31212090265D0030B8B4219D300E0CA
:10065000090AC30B8B4201D3CB03C01A5241830B4F
:100660008B4201D38B03C01A5241430B8B4201D3FF
:100670004B03C01A5241030B8B4201D30B03C01A28
:100680005241C30A8B4201D3CB02C01A5241830AA2
:100690008B4201D38B02C01A5241430A8B4201D3D1
:1006A0004B02C01A5241030A8B4201D30B02C01AFB
:1006B0005241CDD2C3098B4201D3CB01C01A524162
:1006C00083098B4201D38B01C01A524143098B42EB
:1006D00001D34B01C01A524103098B4201D30B01D4
:1006E000C01A5241C3088B4201D3CB00C01A5241F9
:1006F00083088B4201D38B00C01A524143088B42BE
:1007000001D34B00C01A5241411A00D20146524156
:10071000104670475DE0CA0F00D04942031000D375
:10072000404253409C46002203098B422DD3030ACA
:100730008B4212D38901FC2212BA030A8B420CD3DA
:10074000890192118B4208D3890192118B4204D303
:1007500089013AD0921100E08909C3098B4201D383
:10076000CB01C01A524183098B4201D38B01C01ABD
:10077000524143098B4201D34B01C01A5241030934
:100780008B4201D30B01C01A5241C3088B4201D3E3
:10079000CB00C01A524183088B4201D38B00C01A90
:1007A0005241D9D243088B4201D34B00C01A524167
:1007B000411A00D201465241104663465B1001D3F4
:1007C0004042002B00D54942704763465B1000D37E
:1007D000404201B50449002802DC491C084000E001
:1007E0000846C046C04602BDFFFFFF7F7047704706
:1007F000704700000121C9050123411842001B0672
:10080000D3185B0E0AD0C1100722D2068918400700
:100810005242D14201D5520089187047090208D5C9
:100820000146002A03D0C10FC907002070471046B7
:100830007047420202D00020024970470721090593
:100840000143F4E70000F87FF0B5FF252D04C60949
:10085000C209FF2704462E400137CB093E434840DA
:100860002A402B400746002A6BD0002B69D0AA42B1
:1008700067D0AB4265D0002800DA32460125ED058D
:1008800029432C4309022002090AD21A4B0C7F2467
:10089000E31A434C000A7C44E35C7D2424041219CF
:1008A00014145B00A218884201D3521C00E04000DF
:1008B00049420C465C4324115C43DB016415E31898
:1008C000040A5C43C502200D0C4644436419250A02
:1008D0005D432303EC0C0D46654300030019EB1840
:1008E0004C42A34201D35B18401CD4052018002BB6
:1008F00007D05B00C91804D3401C002901D140086F
:1009000040003F2189048A4209D3002A08DC1106ED
:10091000090F04D0032149074018C00FC007F0BDDC
:1009200001224100120689187F2252069142F6D216
:1009300005214907C84201D59010F0BDFF20C00530
:10094000F0BD002F00DA32461648AA4207D2AB4269
:1009500005D21902090E17D0F80FC007F0BDFF2508
:1009600063002D06AB42F9D84900A942F6D8AB4244
:1009700001D1A942F2D0A94201D1002101E06100D8
:100980004908D0050843F0BD1102090EFBD0FF2035
:100990000243D005F0BD0A460146104654E7000068
:1009A000A73C00000000C07F10B501469E24000255
:1009B000CA15A307002A02D01843002A04DBA21A92
:1009C000002A0CDDD04010BD1206120E01D14000ED
:1009D0004008A21A03D4D04040420028F3DDFF2291
:1009E00048001206904201D9002010BDC817C0432C
:1009F000584010BD1F22030C02D10F2200041CD04E
:100A0000030E01D10002083A030F01D10001121FA9
:100A1000830F01D18000921E002801DB4000521E8E
:100A2000D2055118021251181922904004D3491CC2
:100A3000002801D14908490008467047C10FC9077D
:100A400000D04042012292071143D3E701218907D8
:100A5000D0E710B500F00CFB006810BD10B50446DF
:100A600000F006FB046010BDFFB504460D4681B0E2
:100A7000243000902168880604D51022E069914353
:100A8000216000E00120A84201DD471B00E00027B3
:100A90000498A1697A191018081AA0612078C00674
:100AA00002D42046FFF7D8FB002608E003986268CE
:100AB000A168805D9047206A401C761C20620498E3
:100AC0008642F3DB2078C0060AD52046FFF7C4FB38
:100AD00006E06268A16830209047206A401C2062CE
:100AE00038467F1E0028F4DC07E000986268A168A1
:100AF000405D9047206A401C206228466D1E0028F9
:100B0000F3DC2046FFF7BEFB2078000602D502206A
:100B100005B0F0BD0120FBE7FFB50C461E468FB0C7
:100B200003CA089009914F007D0D00D16D1E002170
:100B300008460020C0460321099A89050840002A7A
:100B400003DA8200801840080840800D01280A90CE
:100B500002DD0020C0430A90089807430DD0F048FA
:100B6000F049281848430714189800281DD07542EA
:100B7000291E1DDD0A9842421BE01898012802D068
:100B80000020302104E00020F24305E02154401C05
:100B9000B042FBDB30460022189B002121540F9904
:100BA0008B600A60486013B0F0BDBD1B6D1CDFE7B1
:100BB0000A9A002900DA69420BA800F0DFFA0BABB1
:100BC00007CB03AB07C30899099800F043FB6B46BA
:100BD00007C30146D4480918002D00910BDDD24906
:100BE00003980A9A49424018002303A903906846D3
:100BF00000F0A0FD08E003990A9A0023081803A951
:100C00000390684600F040FD6B4607C30004000CEB
:100C100003D00020C043410800E01046189A002A83
:100C200003D00022009215461EE0751E05D400F088
:100C300023FA303262556D1EF9D50122084307961A
:100C400002D000227F1C04E02078302801D100224D
:100C50007F1E002A069787D01EE0112D07DA00F0CC
:100C60000BFA303262556D1C02460A43F5D1084337
:100C700003D00098002819D00EE00021681E05E07E
:100C8000235C625C63542254401E491C8142F7DBA2
:100C9000A81B401E07950690079A18990020A0549B
:100CA0000F98079B069A81600CC07CE711260020F4
:100CB000189059E7D21DF0B50D460446D10893B0FF
:100CC000C90003C90C900D9103F058F802460D9825
:100CD000C00F01D02D2007E02068810701D52B200F
:100CE00002E04007C00F4001032A0F9001D0072AFD
:100CF00005DB03462946204600F0FCF90EE120788A
:100D0000800601D5E76900E006272846652D04D056
:100D1000662814D0672D69D12DE00020112F009096
:100D200001DB112300E07B1C0CAA03A910A8FFF72C
:100D3000F3FE1199002610987D1C0E9142E00120CF
:100D40003B460CAAC0070B900120009003A910A8F5
:100D5000FFF7E2FE119D12981099002600280E95CB
:100D600001D1781C0D18781B02D446427D1C761EDA
:100D7000E81B00903AE0012F00DA01270020112F34
:100D8000009001DD112300E03B460CAA03A910A846
:100D9000FFF7C2FE11993D46109800260E9121786A
:100DA00009070BD40E99A94200DA0D4603A9012DBB
:100DB00004DD4A19203AD27F302A06D0B84201DA3F
:100DC000011D04DA012100910FE06D1EEFE70028FC
:100DD00002DC86192D1A03E0411CA94200DD0D46F4
:100DE000801B401C00900120C0070B90207800075A
:100DF00005D40098A84202DB0020C0430090694659
:100E00000020C8720B98012102AF0337C90788423E
:100E100025D0022010902B2011900B9800280BDA7F
:100E200040420B902D20119006E00B9800F09EF8A8
:100E300030317F1E0B9039701099481E0029109098
:100E4000F3DC0B980028F0D111987F1E38702088B1
:100E5000000501D5452000E065207F1E387001A8FF
:100E6000C01BC01D0B900F98002800D00120411915
:100E70000098C01709180B980818A169081A401E95
:100E8000A0612078C00602D42046FFF7E5F90F984C
:100E9000002805D06268A1689047206A401C206243
:100EA0002078C00625D52046FFF7D6F921E0002E90
:100EB00007DB0E98B04204DD03A86268805DA1687C
:100EC00002E06268A16830209047206A761C401CCE
:100ED00020620098401E002800900AD100F0C4F85B
:100EE000C06862680168405CA1689047206A401C45
:100EF000206228466D1E0028D9DC07E06268387839
:100F0000A1687F1C9047206A401C20620B99481EF4
:100F100000290B90F2DC2046FFF7B4F9032042E6EB
:100F200001FCFFFF104D0000E1DFFFFF01694A1CDB
:100F300002610878704700B58FB0029100210591D9
:100F40000549019379440391114604906846FFF7DF
:100F5000E1F90FB000BD0000E5FFFFFF0CC9083943
:100F60009A4202D2531C0B601070704701468008F1
:100F7000081A02091018020A1018020C1018C008EA
:100F8000820012185200891A01E0401C0A390A290D
:100F9000FBD2704710B5FF22C30D134009D05A4051
:100FA00007D0914205DA5C42A14202DDC90508186A
:100FB00010BDC40FE407002B06D0002A06D000297C
:100FC00002DBFF20C0050443204610BD4102FCD0D7
:100FD000004810BD0000C07F30B5C30D1906214A7E
:100FE000090E31D0FF292FD000283ADB0102500230
:100FF000014301207D33C34000D24908012080070E
:101000001724091A2406490882102343FF252D06B8
:101010004C00211A04D4891A02D45400201800E08C
:10102000214652085B19F3D51A220446944007D38F
:1010300082068A4203D180218030884300E08030DC
:10104000C009D905081830BDFF2904D04100FAD0E5
:10105000C00FC00730BD410201D0104630BD00288E
:10106000FCDAFAE70000C07F004870472800202023
:1010700000487047080020200B4670B502468907DB
:101080008008084319469D08141AA9412509080734
:10109000054308092C194841250A01060D43010A98
:1010A0002C194141200C0D0428430D0C00194D4111
:1010B000002140194D41C00869070843E908840F21
:1010C0008D002543840024184D4124196D41121BC5
:1010D000AB4107E00925ED432C115219634100246F
:1010E000401C61411C460A250026551BB441F1D223
:1010F00070BD0000F8B51F46044601230068DB02FE
:10110000032601461840072A05DB002801D017A551
:1011100006E017A504E0002801D016A500E016A5FA
:10112000102081432160A069C01E002FA06101D062
:10113000401EA0612046FFF78FF8002F09D03846E7
:101140006268A1689047206A401C2062C01C20622F
:1011500006E0206AFAE762682878A1686D1C90476B
:10116000761EF8D22046FFF78DF8F8BD4E414E00AE
:101170006E616E00494E4600696E6600F7B5164610
:101180008AB0334878446C4603467C33C06F5A6853
:101190009B680DC42E487844763003AC0DC80DC44E
:1011A0003720C001081837211B30FFF731FA0546F8
:1011B0000C46803D1B3C02D56442012000E000202B
:1011C0000027099010E0E0070CD00C20204978435C
:1011D000794432464C3941186846012300F054FAEC
:1011E0006B4607C364107F1C002CECD1184F7F4462
:1011F0002E3F16E0E80712D02001C0190EC8069154
:10120000089307920068F04201D19819089032467D
:10121000012306A903A800F037FA03AB07C36D103A
:10122000641C002DE6D10998002806D03246694694
:10123000012303A800F07EFA05E001233246694647
:1012400003A800F021FA0A9B07C30DB0F0BD00000F
:10125000FC330000034640000A4610B5400D0BD099
:101260000121C9070F24A40200191C0364082143AB
:10127000540D2143D20207E000210120F2E7D40FF0
:10128000490021435200401E0029F8DADB0FDB073A
:10129000184310BDFFB50D46144685B04868516827
:1012A00002F053FD00910190A868A16802F04DFD85
:1012B00002910390A868616802F047FD029A121833
:1012C0008242029201D2012000E00020019A0B1814
:1012D000D2180028019202D08A4202D903E08A4241
:1012E00001D2012000E000200099081800906868F1
:1012F000A16802F02AFD029A12188242029201D2DB
:10130000012000E00020019A0B18D2180028019259
:1013100002D08A4202D903E08A4201D2012000E0D1
:1013200000200099081800902868216840004900B2
:10133000400849084018FA49471814E0019940004C
:10134000C90F08430090019802994000C90F084353
:101350000190029803994000C90F08430290039836
:1013600040007F1E039000980028E7DA08980028C4
:1013700001D0EC4E00E00026B74201DA012000E087
:101380000020002804902AD0F71BF806C00E15D0C4
:10139000029B2021091A039A8B401A430392029A56
:1013A000019BC2408B401A430292019A009BC240AB
:1013B0008B4000991A430192C14000917B110DD0DE
:1013C0006F460320C11A03D500218200B95003E003
:1013D0008A008100BA587A50401EF3D537460398E8
:1013E0000299002800D001200143089802910028AA
:1013F00008460CD0002800D001200199019A490527
:1014000008430121D20AC902D202019200E001215F
:101410000E9B0122D207012B02D0002B03D013E038
:10142000002807D120E0904204D890420CD1019BC3
:101430000B4209D0019B5918019105D10099491C13
:10144000009101D17F1C009200280DD01021084688
:101450000020C0460498002806D00F98002803D02A
:10146000082108460020C04628682168019B009A90
:101470004840C10F0598C90739430EC009B0F0BDF7
:10148000FFB587B0099A0898089953689268406830
:10149000896896460022039317469446089A126874
:1014A0005300099A5B081268520052089A1A9E4B20
:1014B000D4180A9A002A01D0352200E04022069270
:1014C0000022012315460492DB07059324E0002D3A
:1014D00005D175460346039E4D1BB34109D375469E
:1014E0006646039B491B049D9841059B7519AC46B4
:1014F0005F4163463B4308D0059B049EDD077608A9
:101500002E435B080496059301E0521E641EC50F2E
:10151000ED0749184041521C069B9A42D7DB002D2B
:1015200004D17546039A6B1A824101D203200CE064
:10153000039A0B466B404240134303D0014303D050
:10154000012002E0022000E000206146019100211C
:10155000009702910A99002905D061464002014393
:10156000704B019102E08007002302909C4201DA57
:10157000012000E0002007003AD01A1BD006C00E60
:1015800015D0029D2021019C091AC5408C4025439D
:10159000029C8C4000D001242543019C0295009DB3
:1015A000C4408D4000992C430194C14000915411D6
:1015B0001DD06D460221002202290CD10320001B00
:1015C00007E0002804DB8600AE59002E00D001227F
:1015D000401C0328F5DB081B02D588002A5004E0D4
:1015E0008000285810438A00A850491EE3D51C46A5
:1015F0000A98002802980CD0002800D001200199F8
:10160000019A490508430121D20AC902D202019276
:1016100000E00121109B0122D207012B02D0002BF8
:1016200003D013E0002807D11FE0904204D8904275
:101630000CD1019B0B4209D0019B5918019105D196
:101640000099491C009101D1641C009200280CD023
:10165000102108460020C046002F06D0119800280F
:1016600003D0082108460020C04608980999019A2D
:10167000009B006809684840C10F0798C9072143CB
:1016800082600AC00BB0F0BD00B585B00193009236
:101690000A460146002302A8FFF7FCFD02A807C87E
:1016A00005B000BDFFB50A461F4685B007990193F6
:1016B00001230091014602A8FFF7ECFD029903986F
:1016C000049ECA0F4900D20700920F2249089202D5
:1016D0008C1A0021002800DB0C46450013486D08D9
:1016E000844214D3079A002A04DA441E0026104DBF
:1016F000F64302E004460D460E461021084600203F
:10170000C046002F03D0042108460020C046200513
:10171000E90A0843009908436905F20A1143ADE656
:1017200002C0FFFF013C0000FF3F0000FF07000078
:10173000FFFFFF7F00B585B0019300920A46014686
:10174000002302A8FFF79CFE02A807C8A8E7FFB580
:101750000A461F4685B0079901930123009101466F
:1017600002A8FFF78DFE02990398049ECA0F490054
:10177000D20700920F22490892028C1A00210028F9
:1017800000DB0C46450011486D08844214D3079ACB
:10179000002A04DA441E00260D4DF64302E00446FA
:1017A0000D460E46102108460020C046002F03D0EB
:1017B000042108460020C0462005E90A0843009994
:1017C00008436905F20A114358E60000FF070000CC
:1017D000FFFFFF7F10B5FF231B0644009C421DD86E
:1017E0004C009C421AD80346124A0B4307D4401AB5
:1017F00002D3EFF3008010BDEFF3008010BD081A94
:1018000003D3EFF30080904305E0EFF30080012164
:101810009043C907084380F3008810BD0D231B04C3
:101820001A4204D01146002000F08AF810BD00F0E2
:101830009FF810BD0000009000487047080020206D
:101840007546FFF7F9FFAE46050069465346C008E6
:10185000C000854618B020B5FEF7D0FC60BCB64687
:1018600000260027C0C5C0C5C0C5C0C5C0C5C0C50D
:10187000C0C5C0C5403D490849008D46704710B5F8
:101880000446C046C0462046FEF78EFC10BD000050
:1018900082078B079A423FD170B5920F0AD003247A
:1018A00002780B78401C491C002A33D09A4231D16F
:1018B0002042F5D1214EF40104C808C9951B954377
:1018C000254018D19A420FD104C808C9951B9543E9
:1018D000254010D19A4207D104C808C9951B9543E9
:1018E000254008D19A42E7D012BA1BBA01209A4289
:1018F00000D2404270BD12BA1BBA2DBA1824100093
:10190000E0401900E140401A05D12E00E64002D126
:10191000083CF4D1D01A70BD02780B78401C491CE9
:10192000002A09D09A4207D102780B78401C491C42
:10193000002A01D09A42EFD0D01A7047010101016C
:10194000C80212D54803400F002804D0C803C04382
:10195000012188407047EFF3008000010009032156
:101960000907084380F30088704700207047000093
:1019700010B5024800F004F810BD00000000C07F60
:1019800010B50C461107090F092904D00A290AD0FD
:1019900008290CD104E011460820FFF7D1FF06E02A
:1019A000510606D501E0510601D50120C0072146A8
:1019B00010BDD10607D501010909CC084907000E61
:1019C0000006044309E0410F20024907000A0143D1
:1019D000200E00061D22D14101430846E7E7000022
:1019E00001491820ABBEFEE7260002007047811EA9
:1019F000091F00BFFCD2704710B5002A0FD09123F9
:101A00005B01C3180020DC692405240F05D00C5CA1
:101A10001C60401C8242F6D1104680B210BD0020EE
:101A200080B210BD0F4A83580121C9030B43835074
:101A3000801842681207FCD102688A43026070472E
:101A4000084A835880210B43835080180F221202CA
:101A5000436813400122D2029342F7D102688A43BD
:101A6000026070473812000070B50A780C231A40E3
:101A70000124240305196E689E43B2186A604978F0
:101A800007221140035993435918015170BD0000BA
:101A9000F0B583B00024204601F0C6FCEA2825D129
:101AA00002A88021417006250570F64A0192F64F82
:101AB000F64E306880061DD40198401E019068D013
:101AC0003068800616D40198401E019061D03068BD
:101AD00080060FD40198401E01905AD030688006CD
:101AE00008D40198401E0190E3D152E0E44320461F
:101AF00003B0F0BD02A90222E548FFF77DFF3046A2
:101B000008380168E34A1140D0220A430260DD4AE6
:101B1000301F0168E04B1940394301600192306881
:101B2000400619D40198401E019032D0306840061A
:101B300012D40198401E01902BD0306840060BD47F
:101B40000198401E019024D03068400604D40198CA
:101B5000401E0190E3D11CE001923068800618D449
:101B60000198401E019014D03068800611D401986D
:101B7000401E01900DD0306880060AD40198401EA6
:101B8000019006D03068800603D40198401E019071
:101B9000E3D10194C1480199814219D200BF019952
:101BA000491C01910199814212D200BF0199491C3F
:101BB0000191019981420BD200BF0199491C019109
:101BC0000199814204D200BF0199491C0191E2E7C9
:101BD00002A801274770057001923068800619D469
:101BE0000198401E019065D03068800612D401989B
:101BF000401E01905ED0306880060BD40198401ED4
:101C0000019057D03068800604D40198401E01909E
:101C1000E3D14FE002A902229D48FFF7EDFE3046D6
:101C2000083801689B4A1140D0220A430260954A55
:101C3000301F0168984B1940934B19430160019282
:101C40003068400619D40198401E019032D03068A7
:101C5000400612D40198401E01902BD030684006F7
:101C60000BD40198401E019024D03068400604D463
:101C70000198401E0190E3D11CE00192306880067B
:101C800018D40198401E019014D03068800611D4F9
:101C90000198401E01900DD0306880060AD401984A
:101CA000401E019006D03068800603D40198401E83
:101CB0000190E3D101947A4D0198A84219D200BF56
:101CC0000198401C01900198A84212D200BF0198CF
:101CD000401C01900198A8420BD200BF0198401C03
:101CE00001900198A84204D200BF0198401C0190C5
:101CF000E2E702A844700721017001923068800673
:101D000019D40198401E019065D03068800612D425
:101D10000198401E01905ED0306880060BD4019877
:101D2000401E019057D03068800604D40198401EB0
:101D30000190E3D14FE002A902225548FFF75CFE73
:101D4000304608380168534A1140D0220A430260E5
:101D50004C4A301F0168504B19404B4B19430160EE
:101D600001923068400619D40198401E019032D08B
:101D70003068400612D40198401E01902BD0306884
:101D800040060BD40198401E019024D030684006D4
:101D900004D40198401E0190E3D11CE00192306808
:101DA000800618D40198401E019014D03068800637
:101DB00011D40198401E01900DD0306880060AD4DD
:101DC0000198401E019006D03068800603D4019827
:101DD000401E0190E3D102A8202141707F21009193
:101DE000017001923068800619D40198401E01905C
:101DF00075D03068800612D40198401E01906ED0D4
:101E0000306880060BD40198401E019067D030687E
:101E1000800604D40198401E0190E3D15FE002A93E
:101E200002221B48FFF7E8FD304608380168194ACE
:101E30001140D0220A430260124A301F0168164B3B
:101E40001940114B1943016001923068400629D4B2
:101E50000198401E019042D03068400622D401987B
:101E6000401E01903BD0306840061BD40198401EB4
:101E7000019034D03068400614D40198401E01907F
:101E8000E3D12CE0400D03000700020018120F40C0
:101E900000000F4000F8FFFFF8FF00F000D4300012
:101EA000006A180001923068800618D40198401E1C
:101EB000019014D03068800611D40198401E019022
:101EC0000DD0306880060AD40198401E019006D0DB
:101ED0003068800603D40198401E0190E3D102A827
:101EE0001821417007700192F04F3068800619D4B4
:101EF0000198401E019064D03068800612D4019889
:101F0000401E01905DD0306880060BD40198401EC1
:101F1000019056D03068800604D40198401E01908C
:101F2000E3D14EE002A90222E148FFF765FD304609
:101F300008380168DF4A1140D0220A430260DE4AB5
:101F4000301F0168DD4B1940394301600192306850
:101F5000400619D40198401E019032D030684006E6
:101F600012D40198401E01902BD0306840060BD44B
:101F70000198401E019024D03068400604D4019896
:101F8000401E0190E3D11CE001923068800618D415
:101F90000198401E019014D03068800611D4019839
:101FA000401E01900DD0306880060AD40198401E72
:101FB000019006D03068800603D40198401E01903D
:101FC000E3D102A84470047001923068800619D4ED
:101FD0000198401E019064D03068800612D40198A8
:101FE000401E01905DD0306880060BD40198401EE1
:101FF000019056D03068800604D40198401E0190AC
:10200000E3D14EE002A90222E948FFF7F5FC304691
:1020100008380168E84A1140D0220A430260E34AC6
:10202000301F0168E34B1940394301600192306869
:10203000400619D40198401E019032D03068400605
:1020400012D40198401E01902BD0306840060BD46A
:102050000198401E019024D03068400604D40198B5
:10206000401E0190E3D11CE001923068800618D434
:102070000198401E019014D03068800611D4019858
:10208000401E01900DD0306880060AD40198401E91
:10209000019006D03068800603D40198401E01905C
:1020A000E3D102A8447014210170019230688006C7
:1020B00019D40198401E019064D03068800612D473
:1020C0000198401E01905DD0306880060BD40198C5
:1020D000401E019056D03068800604D40198401EFE
:1020E0000190E3D14EE002A90222B148FFF784FC3F
:1020F000304608380168B04A1140D0220A430260D5
:10210000AA4A301F0168AB4B194039430160019264
:102110003068400619D40198401E019032D03068D2
:10212000400612D40198401E01902BD03068400622
:102130000BD40198401E019024D03068400604D48E
:102140000198401E0190E3D11CE0019230688006A6
:1021500018D40198401E019014D03068800611D424
:102160000198401E01900DD0306880060AD4019875
:10217000401E019006D03068800603D40198401EAE
:102180000190E3D102A844701021017001923068DF
:10219000800619D40198401E019064D030688006F2
:1021A00012D40198401E01905DD0306880060BD497
:1021B0000198401E019056D03068800604D40198E2
:1021C000401E0190E3D14EE002A902227848FFF7B9
:1021D00013FC304608380168774A1140D0220A4380
:1021E0000260724A301F0168724B19403943016026
:1021F00001923068400619D40198401E019032D0F7
:102200003068400612D40198401E01902BD03068EF
:1022100040060BD40198401E019024D0306840063F
:1022200004D40198401E0190E3D11CE00192306873
:10223000800618D40198401E019014D030688006A2
:1022400011D40198401E01900DD0306880060AD448
:102250000198401E019006D03068800603D4019892
:10226000401E0190E3D102A84470009901700192D0
:102270003068800624D40198401E01906FD03068E9
:1022800080061DD40198401E019068D030688006F9
:1022900016D40198401E019061D0306880060FD49A
:1022A0000198401E0190E3D159E0C04607000200AA
:1022B00000000F4000F8FFFF400D0300F8FF00F0A2
:1022C00002A902223A48FFF797FB30460838016816
:1022D000394A1140D0220A430260344A301F016853
:1022E000344B19403943016001923068400619D4DB
:1022F0000198401E019032D03068400612D40198F7
:10230000401E01902BD0306840060BD40198401E2F
:10231000019024D03068400604D40198401E0190FA
:10232000E3D11CE001923068800618D40198401E69
:10233000019014D03068800611D40198401E01909D
:102340000DD0306880060AD40198401E019006D056
:102350003068800603D40198401E0190E3D10194B7
:102360000198A84201D3FFF7C2FB00BF0198401CAF
:1023700001900198A84201D3FFF7B9FB00BF019873
:10238000401C01900198A84201D3FFF7B0FB00BFA9
:102390000198401C01900198A84201D3FFF7A7FBC8
:1023A00000BF0198401C0190DAE7C046400D0300D1
:1023B00000000F40F8FF00F000F8FFFFF0B583B019
:1023C00004462D2001AD06262946324601F03EF98D
:1023D000687801990902081800B2FEF72FFB7121F5
:1023E000CF05394601F0D0FF2060E878A9780902CE
:1023F000081800B2FEF722FB394601F0C5FF606005
:10240000687902990902081800B2FEF717FB3946ED
:1024100001F0BAFFA06033202946324601F016F9D8
:102420001248A061687801990902081800B2FEF705
:1024300005FB0F4E3146FEF707FAE060E878A97811
:102440000902081800B2FEF7F9FA3146FEF7FCF966
:102450002061687902990902081800B2FEF7EEFAC5
:102460003146FEF7F1F9606103B0F0BD0000A8410C
:1024700033338341F0B585B007466948056869483C
:102480000168284601F080FF0446674800686349F8
:102490000E68314601F078FF214601F0DBFE01466F
:1024A00001F0D8FE04462846294601F06DFF054696
:1024B0003046314601F068FF294601F0CBFE014667
:1024C00001F0C8FE01467F20C505284601F0C0FF87
:1024D0000146204601F044FD384901F055FF0497BC
:1024E00038604E4800684F490F680290394601F045
:1024F0004BFF04464C48016849480668019108466C
:10250000314601F041FF214601F0A2FF014601F0F2
:10251000A1FE04460120C1072046884303952946B1
:1025200001F07FFC00280ED0204601F08DFC2349ED
:1025300001F02AFF3A490E6838490A6839490F689C
:1025400039490D680AE00021204601F05FFC0028AF
:1025500001D11C4800E01A48029A019D0499486084
:102560001046314601F010FF04462846394601F076
:102570000BFF214601F06EFE014601F06BFE0446A2
:102580003846394601F000FF05463046314601F035
:10259000FBFE294601F05EFE014601F05BFE0146AE
:1025A000039801F055FF0146204601F0D9FC03498C
:1025B00001F0EAFE0499886005B0F0BDE12E6542A5
:1025C0001B00B4421B00B4C21749096801601349DB
:1025D0000968416012490968816012490968C1604F
:1025E0007047C0460B4B19600B490860FA480260FF
:1025F000F74800210160F4480160F6480160F8489E
:102600000160F9480160F74801607F20C005EF498B
:10261000086070477C002020680020208000202077
:10262000840020208800202000002020F0B591B0F8
:102630001E460C920A910B90169C2046214601F0F2
:10264000A3FE05463046314601F09EFE294601F0C4
:1026500001FE0746179D2846294601F095FE39469A
:1026600001F0F8FD01F0CAFD0746D64901F0D9FB9B
:10267000002800D0A4E17F20C00500903946FEF775
:10268000E3F807460390314601F07EFE0990384694
:10269000214601F079FE0890CB480468CB490968CF
:1026A0000F9120460295109401F06EFE0646C84830
:1026B0000568C8490F6828460D9539460E9701F000
:1026C00063FE314601F0C4FE014601F0C3FD06463B
:1026D00004903846214601F057FE04460F982946DB
:1026E00001F052FE214601F0B5FD014601F0B2FDB8
:1026F00007463046089901F047FE044609983946D6
:102700003E4601F041FE214601F0A2FE0146069040
:10271000B14807683846019701F036FEAF490968AD
:10272000079101F031FEAE4C216801F093FD059058
:1027300020600398029901F027FE05460D98014696
:1027400001F022FE04460F98014601F01DFE2146CD
:1027500001F07EFE04461098014601F015FE014688
:10276000204601F075FE04460E98014601F00CFE6D
:10277000214601F06FFD04463046294601F004FE73
:1027800006460898214601F0FFFD314601F060FE43
:1027900001460890384601F0F7FD079F394601F0E1
:1027A000F3FD904E316801F055FD039030602046F6
:1027B000099901F0E9FD04462846049901F0E4FD79
:1027C000214601F045FE05460198294601F0DCFD51
:1027D000394601F0D9FD844C216801F03BFD0646E5
:1027E0002060824804682046089901F0CDFD0399D5
:1027F00001F030FD0B9901F02DFD07460B902046AE
:10280000294601F0C1FD314601F024FD0A9901F08D
:1028100021FD0A90109901F0B7FD05460120C0077F
:102820000D994840394601F0AFFD294601F010FEF0
:1028300005462046069901F0A7FD059901F00AFD1D
:102840000C9901F007FD01460C900E9F384601F0EF
:102850009BFD0146284601F0FBFD04463F20010692
:10286000079801F091FD01460790204601F08CFD8C
:1028700001460F9E304601F0EDFC01460990534899
:10288000016038460A9D294601F07EFD0446304627
:102890000B9901F079FD214601F0DCFC044610980B
:1028A0000C9901F071FD0146204601F0D1FD079C15
:1028B000214601F069FD01460D9F384601F0CAFC32
:1028C00001460890424801603046294601F05CFD0F
:1028D00006460E980B9901F057FD314601F0BAFCFF
:1028E000064638460C9901F04FFD314601F0B2FC26
:1028F000214601F049FD109D294601F0ABFC06463A
:102900003148066038460A9901F03EFD07462846E0
:102910000B9901F039FD0146384601F099FD074653
:102920000F980C9901F030FD39462A4F01F092FCC6
:10293000214601F029FD01460E9801F08BFC054669
:1029400038600898014601F01FFD044609980146C9
:1029500001F01AFD214601F07DFC04463046314667
:1029600001F012FD214601F075FC04462846294677
:1029700001F00AFD214601F06DFC01F03FFC044628
:10298000104901F04EFA00281AD100982146FDF7AF
:102990005BFF04460D4D296801F0F6FC28600C4DE4
:1029A0002968204601F0F0FC2860074D2968204680
:1029B00001F0EAFC28603968204601F0E5FC386047
:1029C00011B0F0BDBD3786358400202000002020E6
:1029D000800020208800202078002020680020200F
:1029E000740020206C002020700020207C0020201B
:1029F00080B5012081026C48FDF7FAFD80BDC0461C
:102A0000F0B58FB043A002A91CC81CC11CC81CC1D2
:102A10001CC81CC13CC83CC100204B4D4B4E4F4C08
:102A200002E0B81C302F6BD2074601953068800653
:102A300018D40198401E019014D03068800611D43B
:102A40000198401E01900DD0306880060AD401988C
:102A5000401E019006D03068800603D40198401EC5
:102A60000190E3D102A8C11902223948FEF7C4FF40
:102A7000304608380168374A114078310160301F0C
:102A80000168354A11400919016001953068400616
:102A900018D40198401E019014D03068400611D41B
:102AA0000198401E01900DD0306840060AD401986C
:102AB000401E019006D03068400603D40198401EA5
:102AC0000190E3D1019530688006AAD40198401E98
:102AD0000190A6D030688006A3D40198401E0190D2
:102AE0009FD0306880069CD40198401E019098D0F9
:102AF0003068800695D40198401E0190E3D190E79C
:102B0000012081022848FDF773FD00F051F80FB055
:102B1000F0BDC04600AE00D5008000A8003F00D345
:102B200000000040008D00140020000000A100C83B
:102B300000DA0012008100CF00D900F100DB004074
:102B400000A400A600AF0000F049020018120F40D8
:102B500000000F4000F8FFFFF8FF00F00700020040
:102B6000F0B581B00446107800281BD00D467A29B4
:102B700018D8E1010C4B5E18571C072C0AD82038D6
:102B8000C1B25E2906D8701905225143074B591866
:102B9000FDF784FC3878002804D0A91D7F1C752D12
:102BA0000D46EAD301B0F0BD8C002020184600008D
:102BB000F0B583B00024EE4FEF4D009403E0641CA9
:102BC000082C00D1CFE102A80099017021465039AC
:102BD000417001972868800619D40198401E019021
:102BE00064D02868800612D40198401E01905DD000
:102BF000286880060BD40198401E019056D02868A2
:102C0000800604D40198401E0190E3D14EE002A951
:102C10000222D848FEF7F0FE284608380168D84A54
:102C2000114078220A430260281F0168D34A1140EC
:102C3000CE4A1143016001972868400619D40198D3
:102C4000401E019032D02868400612D40198401EE0
:102C500001902BD0286840060BD40198401E0190AB
:102C600024D02868400604D40198401E0190E3D186
:102C70001CE001972868800618D40198401E019036
:102C800014D02868800611D40198401E01900DD000
:102C9000286880060AD40198401E019006D0286852
:102CA000800603D40198401E0190E3D102A80026BB
:102CB0004670067001972868800619D40198401E56
:102CC000019064D02868800612D40198401E0190BB
:102CD0005DD0286880060BD40198401E019056D024
:102CE0002868800604D40198401E0190E3D14EE08C
:102CF00002A902229F48FEF77FFE28460838016895
:102D00009F4A114078220A430260281F01689B4AAB
:102D10001140964A1143016001972868400619D472
:102D20000198401E019032D02868400612D40198C4
:102D3000401E01902BD0286840060BD40198401EFD
:102D4000019024D02868400604D40198401E0190C8
:102D5000E3D11CE001972868800618D40198401E32
:102D6000019014D02868800611D40198401E01906B
:102D70000DD0286880060AD40198401E019006D024
:102D80002868800603D40198401E0190E3D102A870
:102D900010214170067001972868800619D40198A7
:102DA000401E019069D02868800612D40198401E08
:102DB000019062D0286880060BD40198401E0190D3
:102DC0005BD02868800604D40198401E0190E3D1AE
:102DD00053E002A902226748FEF70EFE2846083893
:102DE0000168674A114078220A430260281F01687F
:102DF000624A11405D4A114301600197286840060C
:102E000019D40198401E019037D02868400612D48A
:102E10000198401E019030D0286840060BD40198DC
:102E2000401E019029D02868400604D40198401E15
:102E30000190E3D121E00197286880061DD4019814
:102E4000401E019019D02868800616D40198401EB3
:102E5000019012D0286880060FD40198401E01907E
:102E60000BD02868800608D40198401E0190E3D159
:102E700003E0761C802E00D1A1E6E001414908184C
:102E8000805D02A94870402008700197286880067C
:102E900019D40198401E0190EBD02868800612D406
:102EA0000198401E0190E4D0286880060BD4019858
:102EB000401E0190DDD02868800604D40198401E91
:102EC0000190E3D1D5E702A902222A48FEF794FD3A
:102ED0002846083801682A4A114078220A430260CD
:102EE000281F0168254A1140204A114301600197BB
:102EF0002868400619D40198401E0190B9D028686E
:102F0000400612D40198401E0190B2D028684006B5
:102F10000BD40198401E0190ABD02868400604D421
:102F20000198401E0190E3D1A3E70197286880062D
:102F30009FD40198401E01909BD02868800698D4A9
:102F40000198401E019094D02868800691D4019881
:102F5000401E01908DD0286880068AD40198401EBA
:102F60000190E3D185E703B0F0BDC0460700020041
:102F7000F049020000000F4018120F40F8FF00F067
:102F800000F8FFFF8C002020F0B58FB01D461446DE
:102F90000491029000271046394600F02CFF0121D1
:102FA00006910028264602D10698C6076640089476
:102FB0003046FDF7F9FC0446FDF740FD014630467A
:102FC00001F046FA0790002C059541D0012C00DA5B
:102FD00087E00327D14D0A262046314600F0BAFD8E
:102FE0004643A11B3026314309AAD219D21E1170C3
:102FF0000A2C38D30A21FDF7FDFA314309A8C0197C
:10300000801E0170642C30D36421204600F0A2FDA4
:103010000A21FDF7EFFA314309A8C019401E0170DB
:10302000E0087D2822D37D20C100204600F092FDDB
:103030000A21FDF7DFFA314309A8C1552046B649F8
:1030400000F088FD3F1DAC420446C4D8FF1E0DE0D1
:103050000BA8302101700021089800F0CCFE002858
:10306000069C45D156E0BF1E00E07F1E059D032152
:1030700038460840042F04D200213A46002818D1CF
:103080002FE0CA433A4009A90B1F0021DC19E5785B
:103090000BAE75547518DE5DEE70A6786E706478B0
:1030A000AC701B1F091D8A42F0D17A1A059D0028B9
:1030B00017D009ABD3185B1E1B780BAC63540128E7
:1030C0000FD00BABCB1809AC1419A41E24785C707C
:1030D000022806D00BA8081809A95118C91E09789A
:1030E00081700021089800F086FE00280FD03C4631
:1030F000002D1BD00BA82E2101550320294601408D
:103100000391042D0694019013D2079F29E0012F0B
:103110003C4605DB0BA9481C2246FDF723FA27464F
:103120000BA82D2101707C1C002DE3D12046029FAD
:10313000CAE02846FC2505400026794C079F384602
:10314000214601F021F9214601F01EF9214601F046
:103150001BF9214601F018F90746361DF0B2A842C6
:10316000EDD103980028059D13D06D49384601F034
:103170000BF90746039E012E0BD0694C38462146B9
:1031800001F002F90746214601F0FEF8022E00D0B8
:1031900007463F200106384601F05CF8FDF704FCC5
:1031A0000646042D01D2002532E0FC20284007907D
:1031B00000250A273046394600F0EEFC08903946D3
:1031C0004143701A303009A948554C1964213046E2
:1031D00000F0E2FC3946FDF71BFA3031A1707D208A
:1031E000C100304600F0D8FC3946FDF711FA303105
:1031F000E17008983946FDF70BFA303161703046BE
:10320000454900F0C9FC06462D1D0798A842D0D1BB
:10321000039F002F1FD00A243046214600F0BCFC3B
:103220004443311B303109AA5155012F13D009A94C
:103230006C180A21FDF7ECF930316170022F0AD0C9
:103240006421304600F0A8FC09A96C180A21FDF79A
:10325000DFF93031A170059C019E2640069D681C57
:10326000002E029F16D0611E09AA525C0BAB1A54A5
:10327000A81C012E0FD0A11E09AA525C0BAB1A5438
:10328000E81C022E07D0E11E09AA525C0BAB1A54AF
:10329000281D00E02146049B042C16D30BAA12180B
:1032A00009ABCB181B1F4C420021DD785554551833
:1032B0009E786E705E78AE701E78EE70091D65188F
:1032C0001B1F002DF1D14018049B0BA900220A54AA
:1032D0007A2B1ED8087800281BD0F901114A5418FF
:1032E0000BA94D1C072F0CD82038C1B25E2908D875
:1032F000E018052251430C4E71181E46FDF7CEF81A
:1033000033462878002804D0991D6D1C752B0B4678
:10331000E8D30FB0F0BDC046102700000F27000013
:10332000000020418C002020184600000648074974
:10333000016041600121490602680A430260426857
:103340000A4342607047C0460480424083000C003C
:1033500080B5BD481049FEF787FB032041020F48A6
:1033600002680A43026001210A02036813430360F2
:103370000022426107224262836B934383631202FD
:10338000836B93438363826A042313438362826A59
:103390000A43826280BDC046F347000000120F401E
:1033A0000D48002101600320C1430C48021F13682F
:1033B0000B40136041680122914341601102426851
:1033C0008A434260016830229143016001680F2204
:1033D000914301607047C04608030B4004010B4055
:1033E00080B500F007F8FFF7A1FFFFF7D9FFFFF75F
:1033F000AFFF80BD80B5074807494160074A51606B
:10340000074B596007490160116019601020FEF7F1
:10341000EEFA80BD00080A40030000B100280A400F
:1034200000080F4001000026F0B583B002A9087023
:1034300083480190834D286880061ED40198401E61
:1034400001900026002800D1F6E02868800614D4F8
:103450000198401E019000D1EEE0286880060CD44F
:103460000198401E019000D1E6E02868800604D44F
:103470000198401E0190DED1DEE0734802A90122CE
:10348000FEF7BAFAFB490191286880061ED401981C
:10349000401E01900026002800D1CDE0286880065B
:1034A00014D40198401E019000D1C5E02868800620
:1034B0000CD40198401E019000D1BDE02868800620
:1034C00004D40198401E0190DED1B5E02F46083F9C
:1034D0003868EB4A1040D03038602C1F2068E94A29
:1034E0001040E94A8018206001912868400618D4ED
:1034F0000198401E019014D02868400611D401980C
:10350000401E01900DD0286840060AD40198401E44
:10351000019006D02868400603D40198401E01900F
:10352000E3D101912868800618D40198401E0190CB
:1035300014D02868800611D40198401E01900DD047
:10354000286880060AD40198401E019006D0286899
:10355000800603D40198401E0190E3D1C748FEF7CE
:103560006FFAC44A0192286880061BD40198401E55
:103570000190002600285FD02868800612D40198A8
:10358000401E019058D0286880060BD40198401E38
:10359000019051D02868800604D40198401E019003
:1035A000E1D149E03868B6490840D121014339608A
:1035B0002068B4490840B449084320600192286853
:1035C000400618D40198401E019014D02868400687
:1035D00011D40198401E01900DD0286840060AD4ED
:1035E0000198401E019006D02868400603D4019837
:1035F000401E0190E3D101922868800618D40198FA
:10360000401E019014D02868800611D40198401EF5
:1036100001900DD0286880060AD40198401E0190C0
:1036200006D02868800603D40198401E0190E3D19B
:103630006E689248FEF7F6F9F0B203B0F0BDC046EE
:10364000400D030018120F4000000F40F0B585B088
:103650000292019104A90870864E0396864F38683D
:1036600080061AD40398401E039014D03868800650
:1036700013D40398401E03900DD0386880060CD4F4
:103680000398401E039006D03868800605D403983E
:10369000401E0390E3D105B0F0BD784804A9012293
:1036A000FEF7AAF93C46083C206875490840D0302E
:1036B00020603D1F2868734B1840734940182860EC
:1036C00003963868400619D40398401E0390E2D050
:1036D0003868400612D40398401E0390DBD0386847
:1036E00040060BD40398401E0390D4D0386840069F
:1036F00004D40398401E0390E3D1CCE703963868C6
:10370000800619D40398401E0390C4D03868800600
:1037100012D40398401E0390BDD0386880060BD4A5
:103720000398401E0390B6D03868800604D40398EE
:10373000401E0390E3D1AEE750481E46FEF780F9E5
:103740004F494C4A03923868800619D40398401EAA
:103750000390A0D03868800612D40398401E0390CE
:1037600099D0386880060BD40398401E039092D0FD
:103770003868800604D40398401E0390E3D18AE79A
:1037800020680840D1210143216028683040029917
:103790000904014307200843286003923868400663
:1037A0001CD40398401E039000D174E7386840068B
:1037B00014D40398401E039000D16CE7386840068B
:1037C0000CD40398401E039000D164E7386840068B
:1037D00004D40398401E0390E0D15CE7039238685C
:1037E00080061CD40398401E039000D153E738682C
:1037F000800614D40398401E039000D14BE738682C
:1038000080060CD40398401E039000D143E738682B
:10381000800604D40398401E0390E0D13BE7029950
:103820000029019D21D003200840042901D2002154
:103830000EE0FC220A4000217B686B546B187C6808
:103840005C707C689C707C68DC70091D8A42F3D1D6
:1038500000280AD07A686A54012806D049197A6883
:103860004A70022801D0786888700448FEF7DAF8B8
:1038700005B0F0BD400D030018120F4000000F40CE
:1038800000F8FFFFF8FF00F007000100A4B0FFF709
:10389000A7FDFFF7B5F8FEF7FBF8002813D0FFF7F8
:1038A000A7F80220002482A22146FFF759F904203C
:1038B00084A22146FFF754F9FFF77AF900BF00BF51
:1038C00000BF00BFFAE7012081078448844AFEF761
:1038D00089FE002008900E901CA8FEF76FFD1F982F
:1038E000814E314600F050FD04462098314600F0EC
:1038F0004BFD05462198314600F046FD02461C9BD3
:103900001D981E990090019120462946FEF78EFED3
:1039100019A8FEF7AFFD15A8FEF756FEFFF768F8E9
:103920001998FCF767FF04460D461A98FCF762FFEA
:1039300006460F461B98FCF75DFF00AAF0C20490F4
:1039400005910FAC0C9416210D91204667A2FCF74F
:1039500063FC089F384639462246FFF701F90124E7
:103960002046394667A2FFF7FBF81F9A1226204629
:1039700031462346FFF708FB3C210B91204662A20B
:10398000FFF7EEF8209A4E210A9120462346FFF7D2
:10399000FBFA0225284639465CA2FFF7E1F8219A96
:1039A000284631462346FFF7EFFA032420463946DE
:1039B00057A2FFF7D5F81C9A204631462B46FFF751
:1039C000E3FA20460B9953A2FFF7CAF81D9A204646
:1039D0000A992B46FFF7D8FA0424204639464EA20E
:1039E000FFF7BEF81E9A204631462B46FFF7CCFA69
:1039F0001598FCF7FFFE0B900A911698FCF7FAFE5B
:103A0000064609911798FCF7F5FE04460D461898EE
:103A1000FCF7F0FE0B9A00920A9A01920296099A1C
:103A200003AB34C3069007910C9C20460D9D29469C
:103A30003AA2FCF7F1FB052039462246FFF790F841
:103A4000062039463BA2FFF78BF80E9B5B1C2046F5
:103A500029463EA20E93FCF7DFFB0720394622469B
:103A6000FFF77EF8FFF7A4F81E49239723988842B2
:103A700000D331E700BF2398401C2390239888424D
:103A800000D329E700BF2398401C23902398884245
:103A900000D321E700BF2398401C2390239888423D
:103AA00000D319E700BF2398401C2390DEE7C046EF
:103AB00049434D3230393438204E4F5420464F550B
:103AC0004E4400005344413D5041302053434C3D4F
:103AD000504131204144303D474E44000AD7233CF9
:103AE000CDCCCC3D409C000039FA8E3C52252B3584
:103AF0002E30662050252B352E30662059252B354B
:103B00002E3066004758000047590000475A000011
:103B10004158000041590000415A00005120252E13
:103B2000326620252E326620252E326620252E3242
:103B3000660000004D61686F6E7920204B703D3249
:103B40002E30204B693D302E3100000023256C754E
:103B50000000000043088B421AD3002203098B4265
:103B600079D3030A8B425ED3030B8B4242D3030CFF
:103B70008B4227D30902FF2212BA030C8B4202D3D5
:103B80001212090203D0030B8B4233D31AE0D3E0A5
:103B9000411A8041401C704703460B4371D44308CF
:103BA0008B42F5D3002203098B4254D3030A8B4284
:103BB00039D3030B8B421DD3030C8B4202D39446A3
:103BC0006EE0090AC30B8B4201D3CB03C01A5241EA
:103BD000830B8B4201D38B03C01A5241430B8B42A0
:103BE00001D34B03C01A5241030B8B4201D30B0389
:103BF000C01A5241C30A8B4201D3CB02C01A5241B0
:103C0000830A8B4201D38B02C01A5241430A8B4272
:103C100001D34B02C01A5241030A8B4201D30B025B
:103C2000C01A5241CDD2C3098B4201D3CB01C01A75
:103C3000524183098B4201D38B01C01A524143097F
:103C40008B4201D34B01C01A524103098B4201D36D
:103C50000B01C01A5241C3088B4201D3CB00C01ADA
:103C6000524183088B4201D38B00C01A5241430852
:103C70008B4201D34B00C01A5241411A52411000ED
:103C80007047CA0F00D04942031000D3404253404E
:103C900000229C4603098B422DD3030A8B4212D388
:103CA0008901FC2212BA030A8B420CD389019211BA
:103CB0008B4208D3890192118B4204D3890137D0FA
:103CC000921100E08909C3098B4201D3CB01C01ACC
:103CD000524183098B4201D38B01C01A52414309DF
:103CE0008B4201D34B01C01A524103098B4201D3CD
:103CF0000B01C01A5241C3088B4201D3CB00C01A3A
:103D0000524183088B4201D38B00C01A5241D9D251
:103D100043088B4201D34B00C01A5241411A00D2D2
:103D200001465241104663465B1000D34042704743
:103D300063465B1000D3404201B50021004201D030
:103D4000C9430846C046C04602BDF8B5040C8BB254
:103D5000264682B25E43104658430D0C370C36049B
:103D600000218019164679416E43370C36048019BC
:103D7000264679416E438919F8BD00004900CA0200
:103D80000243100000D004204A0D01D0012210434C
:103D9000044A490D914201D102210843012800D172
:103DA00005207047FF0700004100080200D00420F2
:103DB0000A0E01D001221043090EFF2901D1022170
:103DC0000843012800D10520704710B50121FDF7F7
:103DD000E1F810BD10B500F03DFA10BD10B500219E
:103DE0000846FCF731FD10BD5E2110B5C943080738
:103DF000FDF7D0F810BD10B500F072FAEFF30080B7
:103E0000800001D5012010BD002010BD10B500F0CC
:103E100067FAEFF300804000800F012800D00020F7
:103E200010BD10B500F086FAEFF30080800001D4D9
:103E3000012010BD002010BD30380A2801D2012019
:103E40007047002070470000F8B504464721400045
:103E500049060D2241181206914253D83F214906C6
:103E600088421BD960007F214008C90500F0E4FAB0
:103E70000021C943FDF78EF8074600F0BFF9002C7A
:103E800004DA2F4D2D4EA907484001E02D4E2E4D4E
:103E90000321890700F078FA044606E0002621464F
:103EA0003546084600F070FA07462849384600F0C3
:103EB0006BFA274900F0CEF9394600F065FA25493A
:103EC00000F0C8F9394600F05FFA234900F0C2F962
:103ED000394600F059FA214900F0BCF90090394602
:103EE000204600F051FA009900F04EFA07462946A4
:103EF000204600F0AFF9394600F0ACF9314600F049
:103F0000A9F9F8BD39214906884208D22046FFF7B1
:103F10004BFF042801D1FFF767FF2046F8BDFF21C2
:103F20000906884203D92046FFF74FFFF8BD01205C
:103F3000FCF794FDFFF752FFF8BD00000000C9BF79
:103F400022AAFDB90000C93F22AAFD3924FE1C3D6A
:103F5000C78AD83C1E67383D1B93993DAFAA2A3EBD
:103F6000F0B50C4601461D224B00D2069F18E526EF
:103F700005463606620087B02046B7427BD21D2731
:103F8000FF06D719B74276D24F0043003E0E1A0EF5
:103F9000B21A1B2A07DD002902DA854807B0F0BDF6
:103FA000844807B0F0BD1A26F2422FDA002807DA5B
:103FB000002902DA804807B0F0BD804807B0F0BDA4
:103FC00021462846FCF740FC0646FFF7EDFE042894
:103FD00001D1FFF709FF2846FFF7E6FE0546204618
:103FE000FFF7E2FE04463046FFF7DEFE042D01D067
:103FF000052D08D1042C01D0052C04D1002802D1B4
:104000000220FCF72BFD304607B0F0BD9F4211D9CE
:10401000002902DA6A4F6B4E01E06B4F6B4E23466C
:104020002C461D4601220346D20708465440504004
:1040300019460BE0002807DA002902DA644F654EC2
:1040400004E0654F654E01E000263746421A012321
:1040500052001B069A422FD2484061490CD5BF201E
:1040600000060290384600F0F3F907465D493046F5
:1040700000F0EEF90BE053E03F20000602903846D6
:1040800000F0E8F807465749304600F0E3F80646E6
:104090002846029900F078F9214600F0DBF80090FC
:1040A0002146029800F070F9294600F0C5F9009900
:1040B000FCF7CAFB044604E021462846FCF7C4FB93
:1040C0000446014600F060F94749009000F05CF9B1
:1040D000464900F0BFF8009900F056F9444900F055
:1040E000B9F8009900F050F9424900F0B3F800998E
:1040F00000F04AF9404900F0ADF805462046009925
:1041000000F042F9294600F03FF9314600F0A2F8EC
:10411000214600F09FF8394600F09CF807B0F0BD4A
:10412000FF263606B34201D8B24205D901462846D9
:10413000FFF750FE07B0F0BD2F4607437F000AD0BF
:10414000B3420CD1B2420AD101229207904391436B
:104150000D46044618E7FF22D2051043F9E7B342A3
:104160000CD047000AD0B2420ED04E000CD05340C3
:10417000F0D4002A0EDB9F26F6050DE0FF22D205C3
:104180001143E00FC007FFE6C90FC907FF22D205A0
:104190001043F9E65F26F6053146284600F0F4F8AC
:1041A00005463146204600F0EFF804462946EBE686
:1041B000DB0FC9BFDB0FC93FDB0F49C0DB0F494035
:1041C0000000C9BF22AAFDB90000C93F22AAFD39DB
:1041D000000049C022AA7DBA0000494022AA7D3AC7
:1041E0000060ED3EC30ACE372DAD65BD8FB8D53D1D
:1041F0000FB511BE61C84C3EA8AAAABE70B505464F
:10420000FCF7EAFE41000446FF204908C005411AB8
:10421000C90F07D069004908401AC00F02D1012018
:10422000FCF71CFC204670BD10B500290AD00878A8
:10423000002807D005487844FDF72AFB002801D064
:10424000002010BD0248784410BD0000E2050000C7
:10425000DA05000070B50125ED0704004C4020D4BC
:10426000441A01D2001B0919C60D4B00F2B2FF2AF5
:1042700029D01B0E2CD000020C0228432C43D31A49
:10428000DC40051910D2280A02D3401C6D0611D05B
:10429000761EF6058019FF2A00DA70BDC00DC00534
:1042A00070BD694000F0DAF801200543C541521C99
:1042B000761CE8E764089C40C90161408900E7D1A9
:1042C0000124A043E4E71B0E440200D0034870BD64
:1042D000002AFCD1C00FC00770BD00BF0000C07F26
:1042E0000123DB0502000A430DD4DA4203D49A42CB
:1042F00007D488427047D84214D4D94212D4884295
:10430000704780427047DA4203D59A42F9D581421C
:1043100070475B004200DA4204D24A00DA4201D21E
:104320008142704710B5024AFDF754FA10BD00BF34
:10433000090013040123DB0502000A430DD4DA420D
:1043400003D49A4207D488427047D84214D4D94241
:1043500012D48842704780427047DA4203D59A42AD
:10436000F9D5814270475B004200DA4204D24A002C
:10437000DA4201D28142704710B5024AFDF72AFAAB
:1043800010BD00BF0900160470B5420064414B0027
:104390005C41120E39D01B0E38D0FF2A3CD0FF2BC7
:1043A0003AD0D2187F3A40024902400A490A4518D9
:1043B000ED0106004E43000A090A48430104731A3E
:1043C0004019190C4318990F04D05B0801214907C3
:1043D0005B1A521CD80904D3401CF50301D19D0679
:1043E00007D0FF2A08D2D50506D0E407204340199C
:1043F00070BD0125A843F4E7002A01DCE00770BD89
:104400002402FF202043C00570BD1B0EFF2A03D0ED
:10441000FF2B01D0E00770BDFF2636064500B542F0
:1044200006D84D00B54203D8D218FF2A00D0E7E7DE
:10443000004870BD0000C07F70B50125ED076840E1
:1044400004004C4002D5694000F008F8FFF708FF6F
:1044500070B50125ED0704004C4022D4441A02D265
:104460006C40001B0919C60D4B00F2B2FF2A4BD05D
:104470001B0E50D000020C02A8432C43D31ADC4080
:10448000051B05D5AD0019D36D08761E521E37D019
:10449000F605280A01D2801970BD70416D0603D05F
:1044A00070BD6940FFF7DCFE9C4009026140490095
:1044B00001D0401E70BD0124A04370BD6D081DD009
:1044C00001202B0C01D12D0410302B0E01D12D0217
:1044D00008302B0F01D12D01001DAB0F01D1AD0014
:1044E000801CEB0F01D16D00401C361A121A6D00B2
:1044F000680AF5054019012A02DB70BD002070BD75
:10450000C036300AC00770BD1B0E440201D1FF2B1C
:1045100000D1024870BD002AF0D070BD0000C07FFD
:1045200003B402487844844603BC60478DC7FFFF4C
:10453000040000080000000000000002000100006C
:10454000108182838485868788898B8C8D8E8F915C
:104550009293959697999A9C9D9FA0A2A3A5A7A890
:10456000AAACAEB0B2B3B5B7B9BCBEC0C2C5C7C9BC
:10457000CCCED1D4D7D9DCDFE2E6E9ECF0F3F7FA20
:10458000FE00000002400000000000A0000000004B
:1045900005400000000000C8000000000C400000C2
:1045A0000000409C00000000194000000020BCBE3C
:1045B0000000000034400000BFC91B8E0000000452
:1045C000B5400000504BCFD06607E2CF010000009D
:1045D0006C4100003E8251AADFEEA73401000000CA
:1045E000D9420000DCB5A0E23A301F97FFFFFFFF81
:1045F000B4450000FD25A0C8E9A3C14FFFFFFFFFA0
:10460000FF3F00000000008000000000FF3F0000AE
:104610000000008000000000000000000000005FBB
:1046200000000007000700147F147F14242A7F2A4B
:104630001223130864623649552250000503000016
:10464000001C2241000041221C00082A1C2A0808E4
:10465000083E0808005030000008080808080060FC
:1046600060000020100804023E5149453E00427F90
:10467000400042615149462141454B311814127F97
:104680001027454545393C4A494930017109050320
:104690003649494936064949291E00363600000088
:1046A0005636000000081422411414141414412238
:1046B0001408000201510906324979413E7E111168
:1046C000117E7F494949363E414141227F41412285
:1046D0001C7F494949417F090901013E414151324D
:1046E0007F0808087F00417F41002040413F017F53
:1046F000081422417F404040407F0204027F7F0433
:1047000008107F3E4141413E7F090909063E415163
:10471000215E7F09192946464949493101017F0136
:10472000013F4040403F1F2040201F7F2018207F36
:10473000631408146303047804036151494543007A
:10474000007F4141020408102041417F0000040223
:104750000102044040404040000102040020545443
:1047600054787F48444438384444442038444448CA
:104770007F3854545418087E090102081454543CDC
:104780007F0804047800447D40002040443D000040
:104790007F10284400417F40007C041804787C0886
:1047A00004047838444444387C141414080814145D
:1047B000187C7C080404084854545420043F4440A6
:1047C000203C4040207C1C2040201C3C4030403C91
:1047D00044281028440C5050503C4464544C44002D
:1047E0000836410000007F00000041360800080440
:1047F00008100808000000003848000000002020D1
:1048000008000000200100004048000008002020AF
:1048100088050000480100001C0000004300000063
:10482000F8FFFFFF0C0000000E0000000F0000006A
:104830002E000000000000000000803F000000008B
:04000005000000C136
:00000001FF
