:020000040000FA
:1000000068062020A5010000A9010000AB01000046
:1000100000000000000000000000000000000000E0
:10002000000000000000000000000000AD01000022
:100030000000000000000000AF010000B10100005E
:10004000B3010000B3010000B3010000B3010000E0
:10005000B3010000B3010000B3010000B3010000D0
:1000600000000000B3010000B30100000000000028
:1000700000000000B3010000B30100005D150000A6
:10008000B3010000B3010000B3010000B3010000A0
:10009000B3010000B30100000000000000000000F8
:1000A000B3010000B30100000000000000000000E8
:1000B000B301000000000000B3010000B301000024
:1000C00000F002F800F042F812A030C808382418F6
:1000D0002D18AC4201D100F039F80FCCA246AB4646
:1000E0000CA730CF2D1B083F3F197C427F1E544484
:1000F0002D090426F441641EAC4201D300F026F819
:100100000126334200D0FB1A3343984754465D46DC
:10011000DFE700004419000054190000000000004F
:100120007047000000000000002300240025002686
:10013000103A01D378C1FBD8520700D330C100D5A3
:100140000B6070471FB51FBD10B510BD00F0A4F8BF
:100150001146FFF7F7FF01F023FA00F0BCF803B4F3
:10016000FFF7F2FF03BC00F0C3F8000070B50546CE
:100170000C46164602E00FCC0FC5103E102EFAD2E8
:10018000082E02D303CC03C5083E042E07D301CCAE
:1001900001C5361F03E021782970641C6D1C761E92
:1001A000F9D270BD06480047FEE7FEE7FEE7FEE72E
:1001B000FEE7FEE703480449024A044B704700008B
:1001C000C100000068052020680620206805202066
:1001D000F8B5042A2CD3830712D00B78491C03707E
:1001E000401C521E83070BD00B78491C0370401C27
:1001F000521E830704D00B78491C0370401C521E0A
:100200008B079B0F05D0C91ADF002023DE1B08C90E
:100210000AE0FFF7ABFFF8BD1D4608C9FD401C46CC
:10022000B4402C4310C0121F042AF5D2F308C91A97
:10023000521EF0D40B78491C0370401C521EEAD4A5
:100240000B78491C0370401C012AE4D40978017022
:10025000F8BD01E004C0091F0429FBD28B0701D5BA
:100260000280801CC90700D00270704700290BD0A3
:10027000C30702D00270401C491E022904D3830721
:1002800002D50280801C891EE3E70022EEE70022EF
:10029000DFE7704770477047754600F025F8AE46B7
:1002A000050069465346C008C000854618B020B511
:1002B000FFF780FF60BCB64600260027C0C5C0C55A
:1002C000C0C5C0C5C0C5C0C5C0C5C0C5403D490842
:1002D00049008D46704710B50446C046C0462046CA
:1002E000FFF73DFF10BD00000048704700002020D0
:1002F00001491820ABBEFEE7260002007047811EB0
:10030000091F00BFFCD2704710B5002A0FD09123FF
:100310005B01C3180020DC692405240F05D00C5CA8
:100320001C60401C8242F6D1104680B210BD0020F5
:1003300080B210BD084A835880210B438350801837
:100340000F221202436813400122D2029342F7D1D6
:1003500002688A43026070473812000070B50A785C
:100360000C231A400124240305196E689E43B21819
:100370006A60497807221140035993435918015183
:1003800070BD0000B0B51122120283580124A343AE
:1003900083500B888C781C438B882343094C1C406A
:1003A0008358094D1D40631983508B79CC791C43C8
:1003B000097A21437E231940801842689A435118D4
:1003C0004160B0BD18670000E798FDFF10B501223D
:1003D000120383180C789C604978815010BD00008E
:1003E00080B5012081020248FFF751FF80BDC04661
:1003F00060002020F0B585B004A9AE204870002030
:1004000003900870EF480222FFF77EFFEE4D286848
:10041000800608D42868800605D42868800602D49F
:1004200028688006F3D52E46083E3068E749084024
:10043000783030602C1F2068E5490840E5494018B5
:1004400020602868400612D5286840060FD5286825
:1004500040060CD528684006F3D408E028688006DA
:1004600008D42868800605D42868800602D4286845
:100470008006F3D5D34F3846FFF75CFF04A9202050
:10048000019048700398087002223846FFF73CFF3D
:100490002868800608D42868800605D42868800665
:1004A00002D428688006F3D53068C849084078210E
:1004B0000291084330602068C5490840C549084397
:1004C00020602868400612D5286840060FD52868A5
:1004D00040060CD528684006F3D408E0286880065A
:1004E00008D42868800605D42868800602D42868C5
:1004F0008006F3D5B34F3846FFF71CFF04A90398D5
:100500004870087002223846FFF7FEFE2868800611
:1005100008D42868800605D42868800602D4286894
:100520008006F3D53068A949084002990843306035
:100530002068A7490840A74908432060286840066A
:1005400012D5286840060FD5286840060CD52868C3
:100550004006F3D408E02868800608D4286880069E
:1005600005D42868800602D428688006F3D5954F04
:100570003846FFF7DFFE04A9B020487003980870E2
:1005800002223846FFF7C0FE2868800608D4286893
:10059000800605D42868800602D428688006F3D532
:1005A00030688A49084002990843306020688849C9
:1005B00008408849084320602868400612D528680A
:1005C00040060FD5286840060CD528684006F3D4AD
:1005D00008E02868800608D42868800605D42868C2
:1005E000800602D428688006F3D5764F3846FFF798
:1005F000A1FE04A9C820487003980870022238465A
:10060000FFF782FE2868800608D42868800605D493
:100610002868800602D428688006F3D530686B49C4
:1006200008400299084330602068694908406949D8
:10063000084320602868400612D5286840060FD578
:10064000286840060CD528684006F3D408E02868DE
:10065000800608D42868800605D42868800602D45D
:1006600028688006F3D5574F3846FFF763FE04A984
:10067000402048700398087002223846FFF744FE75
:100680002868800608D42868800605D42868800673
:1006900002D428688006F3D530684C490840029996
:1006A0000843306020684A4908404A4908432060AE
:1006B0002868400612D5286840060FD528684006ED
:1006C0000CD528684006F3D408E02868800608D4D2
:1006D0002868800605D42868800602D42868800629
:1006E000F3D5384F3846FFF725FE04A9812048701E
:1006F0000398087002223846FFF706FE2868800635
:1007000008D42868800605D42868800602D42868A2
:100710008006F3D530682D490840029908433060BF
:1007200020682B4908402B49084320602868400670
:1007300012D5286840060FD5286840060CD52868D1
:100740004006F3D408E02868800608D428688006AC
:1007500005D42868800602D428688006F3D5194F8E
:100760003846FFF7E7FD04A97F204870039808701A
:1007700002223846FFF7C8FD2868800608D428689A
:10078000800605D42868800602D428688006F3D540
:1007900030680E49084002990843306020680C49CF
:1007A00008400C4908432060286840061DD5286889
:1007B00040061AD52868400617D528684006F3D4A5
:1007C00013E0C04600000F4018120F4000F8FFFF72
:1007D000F8FF00F0070002002868800608D42868A7
:1007E000800605D42868800602D428688006F3D5E0
:1007F000F14F3846FFF79EFD04A9A12048700398E9
:10080000087002223846FFF77FFD2868800608D46A
:100810002868800605D42868800602D428688006E7
:10082000F3D53068E54908400299084330602068F4
:10083000E3490840E349084320602868400612D590
:10084000286840060FD5286840060CD52868400661
:10085000F3D408E02868800608D42868800605D408
:100860002868800602D428688006F3D5D24F38461F
:10087000FFF760FD04A9A6204870039808700222C3
:100880003846FFF741FD2868800608D428688006AE
:1008900005D42868800602D428688006F3D530681D
:1008A000C64908400299084330602068C44908409E
:1008B000C449084320602868400612D528684006CD
:1008C0000FD5286840060CD528684006F3D408E008
:1008D0002868800608D42868800605D42868800621
:1008E00002D428688006F3D5B34F3846FFF722FDBF
:1008F00004A9A82048700398087002223846FFF720
:1009000003FD2868800608D42868800605D4286876
:10091000800602D428688006F3D53068A7490840CD
:100920000299084330602068A5490840A54908435A
:1009300020602868400612D5286840060FD5286830
:1009400040060CD528684006F3D408E028688006E5
:1009500008D42868800605D42868800602D4286850
:100960008006F3D5944F3846FFF7E4FC04A93F20F6
:1009700048700398087002223846FFF7C5FC2868C3
:10098000800608D42868800605D42868800602D42A
:1009900028688006F3D530688849084002990843E2
:1009A00030602068864908408649084320602868EE
:1009B000400612D5286840060FD5286840060CD599
:1009C00028684006F3D408E02868800608D4286820
:1009D000800605D42868800602D428688006F3D5EE
:1009E000754F3846FFF7A6FC04A9A4204870039869
:1009F000087002223846FFF787FC2868800608D472
:100A00002868800605D42868800602D428688006F5
:100A1000F3D530686949084002990843306020687E
:100A2000674908406749084320602868400612D596
:100A3000286840060FD5286840060CD5286840066F
:100A4000F3D408E02868800608D42868800605D416
:100A50002868800602D428688006F3D5564F3846A9
:100A6000FFF768FC04A9D32048700398087002229D
:100A70003846FFF749FC2868800608D428688006B5
:100A800005D42868800602D428688006F3D530682B
:100A90004A490840029908433060206848490840A4
:100AA0004849084320602868400612D52868400657
:100AB0000FD5286840060CD528684006F3D408E016
:100AC0002868800608D42868800605D4286880062F
:100AD00002D428688006F3D5374F3846FFF72AFC42
:100AE00004A903984870087002223846FFF70CFCEE
:100AF0002868800608D42868800605D428688006FF
:100B000002D428688006F3D530682C490840029941
:100B10000843306020682A4908402A490843206079
:100B20002868400612D5286840060FD52868400678
:100B30000CD528684006F3D408E02868800608D45D
:100B40002868800605D42868800602D428688006B4
:100B5000F3D5194F3846FFF7EDFB04A9D5204870AF
:100B60000398087002223846FFF7CEFB28688006FB
:100B700008D42868800605D42868800602D428682E
:100B80008006F3D530680D4908400299084330606B
:100B900020680B4908400B4908432060286840063C
:100BA0001BD52868400618D52868400615D5286842
:100BB0004006F3D411E0C04600000F4000F8FFFFEC
:100BC000F8FF00F0070002002868800608D42868B3
:100BD000800605D42868800602D428688006F3D5EC
:100BE000F14F3846FFF7A6FB04A9F02048700398A0
:100BF000087002223846FFF787FB2868800608D471
:100C00002868800605D42868800602D428688006F3
:100C1000F3D53068E5490840029908433060206800
:100C2000E3490840E349084320602868400612D59C
:100C3000286840060FD5286840060CD5286840066D
:100C4000F3D408E02868800608D42868800605D414
:100C50002868800602D428688006F3D5D24F38462B
:100C6000FFF768FB04A9D920487003980870022296
:100C70003846FFF749FB2868800608D428688006B4
:100C800005D42868800602D428688006F3D5306829
:100C9000C64908400299084330602068C4490840AA
:100CA000C449084320602868400612D528684006D9
:100CB0000FD5286840060CD528684006F3D408E014
:100CC0002868800608D42868800605D4286880062D
:100CD00002D428688006F3D5B34F3846FFF72AFBC5
:100CE00004A9222048700398087002223846FFF7B2
:100CF0000BFB2868800608D42868800605D428687D
:100D0000800602D428688006F3D53068F54908408B
:100D10000299084330602068F3490840F3490843CA
:100D200020602868400612D5286840060FD528683C
:100D300040060CD528684006F3D408E028688006F1
:100D400008D42868800605D42868800602D428685C
:100D50008006F3D5E24F3846FFF7ECFA04A9DA2013
:100D600048700398087002223846FFF7CDFA2868C9
:100D7000800608D42868800605D42868800602D436
:100D800028688006F3D53068D649084002990843A0
:100D900030602068D4490840D4490843206028685E
:100DA000400612D5286840060FD5286840060CD5A5
:100DB00028684006F3D408E02868800608D428682C
:100DC000800605D42868800602D428688006F3D5FA
:100DD000C34F3846FFF7AEFA04A9122048700398B3
:100DE000087002223846FFF78FFA2868800608D478
:100DF0002868800605D42868800602D42868800602
:100E0000F3D53068B749084002990843306020683C
:100E1000B5490840B549084320602868400612D506
:100E2000286840060FD5286840060CD5286840067B
:100E3000F3D408E02868800608D42868800605D422
:100E40002868800602D428688006F3D5A44F384667
:100E5000FFF770FA04A9DB2048700398087002229B
:100E60003846FFF751FA2868800608D428688006BB
:100E700005D42868800602D428688006F3D5306837
:100E80009849084002990843306020689649084014
:100E90009649084320602868400612D52868400615
:100EA0000FD5286840060CD528684006F3D408E022
:100EB0002868800608D42868800605D4286880063B
:100EC00002D428688006F3D5854F3846FFF732FAFA
:100ED00004A9019848700398087002223846FFF769
:100EE00013FA2868800608D42868800605D4286884
:100EF000800602D428688006F3D530687949084016
:100F000002990843306020687749084077490843D0
:100F100020602868400612D5286840060FD528684A
:100F200040060CD528684006F3D408E028688006FF
:100F300008D42868800605D42868800602D428686A
:100F40008006F3D5664F3846FFF7F4F904A98D20E3
:100F500048700398087002223846FFF7D5F92868D0
:100F6000800608D42868800605D42868800602D444
:100F700028688006F3D530685A490840029908432A
:100F80003060206858490840584908432060286864
:100F900040061AD52868400617D52868400614D59B
:100FA00028684006F3D410E000000F4000F8FFFF6F
:100FB000F8FF00F0070002002868800608D42868BF
:100FC000800605D42868800602D428688006F3D5F8
:100FD000FA4F3846FFF7AEF904A914204870039879
:100FE000087002223846FFF78FF92868800608D477
:100FF0002868800605D42868800602D42868800600
:10100000F3D53068F0490840029908433060206801
:10101000EC490840E849084320602868400612D59A
:10102000286840060FD5286840060CD52868400679
:10103000F3D408E02868800608D42868800605D420
:101040002868800602D428688006F3D5DB4F38462E
:10105000FFF770F904A9AF204870039808700222C6
:101060003846FFF751F92868800608D428688006BA
:1010700005D42868800602D428688006F3D5306835
:10108000D14908400299084330602068CD490840A2
:10109000C949084320602868400612D528684006E0
:1010A0000FD5286840060CD528684006F3D408E020
:1010B0002868800608D42868800605D42868800639
:1010C00002D428688006F3D5DF48FFF733F9012002
:1010D0008102BE48FFF7DBF800F056F805B0F0BD1E
:1010E00000000F4000F8FFFFF8FF00F007000200CB
:1010F00010B5072815D87A2913D813467F3BDBB2E1
:10110000A12B01D3203A00E00022D3B206225343A0
:101110001C4CE318C0014018AC4908181946FFF7E9
:1011200057F810BDF0B581B004461078002827D0DC
:101130000D46561CA54F11E02038C0B20622504380
:1011400010490918E0B2C00128433818FFF740F8E9
:10115000711C3078AD1D00280E4611D07B2D05D3B3
:10116000641CE1B207290BD8002502E0E1B207298F
:10117000EED801467F39C9B2A129DDD20020DCE7D3
:1011800001B0F0BDCC170000F0B58BB00020AE4C24
:101190008B4F0190054604E0029D6D1C082D00D187
:1011A00008E107A9019808702846503848700222C3
:1011B0002046FFF7A9F83868800608D4386880060A
:1011C00005D43868800602D438688006F3D53A46DC
:1011D000083A10687C490840782105910843069236
:1011E00010603A1F10687749084073490843049219
:1011F00010603868400608D53868400605D538685C
:10120000400602D538684006F3D43868800608D412
:101210003868800605D43868800602D438688006AD
:10122000F3D52046FFF786F808A900264E700E7009
:1012300002222046FFF768F83868800608D438682C
:10124000800605D43868800602D438688006F3D555
:10125000069A10685C490840059908431060049A92
:1012600010685849084054490843106038684006DF
:1012700008D53868400605D53868400602D5386874
:101280004006F3D43868800608D43868800605D450
:101290003868800602D438688006F3D52046FFF708
:1012A00049F809A9102048700E7002222046FFF765
:1012B0002BF83868800608D43868800605D438686A
:1012C000800602D438688006F3D5069A10683E4935
:1012D0000840059908431060049A1068394908408D
:1012E0003549084310603868400608D5386840061C
:1012F00005D53868400602D538684006F3D438680A
:10130000800608D43868800605D43868800602D480
:1013100038688006F3D52046FFF70CF80295E801FF
:10132000039007E02C462846FFF704F8761C802E31
:1013300000D131E7039880192449085C0AA9487054
:1013400040200870022225462046FEF7DDFF38685F
:10135000800608D43868800605D43868800602D430
:1013600038688006F3D5069A106817490840059931
:1013700008431060049A1068124908400E49084357
:1013800010603868400608D53868400605D53868CA
:10139000400602D538684006F3D438688006C1D4C8
:1013A00038688006BED438688006BBD438688006AA
:1013B000F3D5B7E70BB0F0BD0700020000000F4007
:1013C00018120F40F8FF00F000F8FFFF6000202027
:1013D00008480949016041600121490602680A4341
:1013E000026042680A434260822101650349416507
:1013F0007047C0460480424083000C008200040015
:1014000080B511481149FEF7A9FF03204102104899
:1014100002680A43026001210A0203681343036061
:101420000022426107224262836B9343836312026C
:10143000836B93438363826A042313438362826AC8
:101440000A43826280BDC04600000F40061A0000B9
:1014500000120F400D48002101600320C1430C48D9
:10146000021F13680B4013604168012291434160E1
:10147000110242688A434260016830229143016050
:1014800001680F22914301607047C04608030B407A
:1014900004010B4010B5154C15492046FEF796FF88
:1014A00014492046FEF76EFF0320C103124802686C
:1014B0008A4302600169114A0A40911C0161416935
:1014C0000B220A4334218A434261416801221140C0
:1014D00043689343591841609102094B1C680C43BF
:1014E0001C6001681143016010BDC04600801040BF
:1014F000081A00000A1A0000009110400000FFFFC7
:101500002890104080B500F009F8FFF761FFFFF761
:10151000A1FFFFF775FFFFF7BDFF80BD10B50948BC
:1015200009494160094A5160094B5960094C6160A1
:10153000094901601160196021601020FEF7DFFE8B
:1015400010BDC04600080A40030000B100280A4050
:1015500000080F40008810400100002670B50E48BA
:1015600000680B21084215D00C480168490711D4C6
:101570009349944A944B02E0046864070AD4C4690E
:101580000D886D1CEDB21688B542F5D00E889C55BD
:101590000D80F1E770BDC0462090104008911040CA
:1015A00084B0FFF7AFFF7B4800BF00BF801CFBD1BA
:1015B000FEF720FFFEF714FF02201421764A029066
:1015C000FFF7B0FD03200A25744A2946FFF7AAFD5C
:1015D0000520734A2946FFF7A5FD0620714A0190B0
:1015E0002946FFF79FFDFFF7CFFD6F4800BF00BF03
:1015F00000BF00BF00BF00BF00BF00BF00BF00BFF3
:1016000000BF00BF00BF00BF00BF00BF00BF00BFE2
:1016100000BF00BF00BF00BF00BF00BF00BF00BFD2
:1016200000BF00BF00BF00BF00BF00BF00BF00BFC2
:1016300000BF00BF00BF00BF00BF00BF00BF00BFB2
:1016400000BF00BF00BF00BF00BF00BF00BF00BFA2
:1016500000BF00BF00BF00BF00BF00BF00BF3930E8
:10166000C4D10124E00351490860FEF7B9FE002609
:101670004F4A30463146FFF755FD4E4A2046314627
:10168000FFF750FDFFF780FD4B4F3E704B4902982E
:1016900008704B4C4B4D20882988884247D02088C1
:1016A0002988884241D028882988491CC9B22980C4
:1016B00045490A5C10460838052812D87844007954
:1016C000400087441015021552023E703B480078D6
:1016D000401CC1B20729314600D801463748017085
:1016E00023E07F2A04D1387800281ED0401E1BE05A
:1016F00010462038C0B25E2817D8304803783878B2
:10170000152809D300203870591CCBB2072B03468B
:1017100000D80B4629490B7001994843C1B2D8B291
:10172000FFF7E6FC3878401C3870FFF72DFD0020ED
:10173000039003986328AED80398401C0390039845
:101740006328A8D80398401C039003986328A2D864
:101750000398401C0390039863289CD80398401C6E
:10176000039003986428E7D395E7FEF739FEFEF768
:1017700037FE304631460E4AFFF7D4FC0120314691
:101780000C4AFFF7CFFCFFF7FFFC3E7002980B49B5
:101790000870CCE756B9EFFF1D1A0000491A000087
:1017A0003E1A0000141A0000AB7ABAFE00E100E015
:1017B000331A0000281A0000600420206104202051
:1017C0006205202064052020620420200000000023
:1017D000000000005F000000000700070000147F09
:1017E000147F1400242A7F2A120023130864620045
:1017F000364955225000000503000000001C22411C
:1018000000000041221C0000082A1C2A08000808C9
:101810003E080800005030000000080808080800D2
:101820000060600000002010080402003E5149459D
:101830003E0000427F400000426151494600214184
:10184000454B31001814127F1000274545453900DB
:101850003C4A4949300001710905030036494949AC
:101860003600064949291E000036360000000056A1
:10187000360000000008142241001414141414004F
:101880004122140800000201510906003249794141
:101890003E007E1111117E007F49494936003E41CC
:1018A000414122007F4141221C007F4949494100BA
:1018B0007F09090101003E41415132007F080808BB
:1018C0007F0000417F4100002040413F01007F0830
:1018D000142241007F40404040007F0204027F000C
:1018E0007F0408107F003E4141413E007F09090905
:1018F00006003E4151215E007F09192946004649F4
:101900004949310001017F0101003F4040403F0053
:101910001F2040201F007F2018207F006314081420
:10192000630003047804030061514945430000004B
:101930007F41410002040810200041417F00000067
:101940000402010204004040404040000001020443
:1019500000002054545478007F48444438003844F0
:1019600044442000384444487F00385454541800FC
:10197000087E09010200081454543C007F08040446
:10198000780000447D4000002040443D0000007F7E
:101990001028440000417F4000007C0418047800B7
:1019A0007C08040478003844444438007C1414143F
:1019B0000800081414187C007C080404080048542B
:1019C00054542000043F444020003C4040207C0010
:1019D0001C2040201C003C4030403C004428102883
:1019E00044000C5050503C004464544C44000008E7
:1019F0003641000000007F00000000413608000072
:101A0000080408100800080008070000180000007B
:101A10000030000052656164792E2E2E004D535027
:101A20004D3047333530370053656E642064617440
:101A3000613A00554152542D3E4F4C4544003131DE
:101A40003532303020627073005541525420446961
:101A500073706C6179000000681A0000000020209B
:081A60006806000028010000E7
:04000005000000C136
:00000001FF
